:1000000000200020F9000000A11700006D1700007B
:100010006D1700006D1700006D1700006D170000D0
:100020006D1700006D1700006D170000A11700008C
:10003000A11700006D170000A11700005D17000058
:10004000A1170000A1170000A1170000A1170000D0
:10005000A1170000A1170000A1170000A1170000C0
:10006000A1170000A1170000A1170000A1170000B0
:10007000A1170000A1170000A1170000A1170000A0
:10008000C11B0000A1170000891F0000A11700007C
:1000900015230000A1170000A1170000A117000000
:1000A000A1170000A1170000A1170000A117000070
:1000B000A1170000A1170000A1170000A117000060
:1000C000A1170000A1170000A1170000C90A000035
:1000D000A1170000A1170000A1170000A117000040
:1000E000A1170000A1170000A1170000A117000030
:1000F000A1170000A1170000564B4CF2205210B57A
:100100001A804DF628121A8000BF00BF01F04CFB88
:10011000514B524A1A60524A5A60A3F53043283B69
:100120001A6812F4807204D14E490A604FF4A85242
:100130001A604D4B1A78110703D51A7842F008025D
:100140001A704A4B2A221A700023494A49499818C2
:10015000884204D24849595899500433F5E7474A30
:10016000474B9A424FF0000302D242F8043BF7E7B4
:100170004449454A595899500433F82BF8D1434B18
:10018000802103F8011B42498B42F9D1414B1A608F
:10019000414B0A221A70A3F6FF7324221A70A02280
:1001A00003F8012C3D4B1A789207FBD51A78D40638
:1001B000FCD41A7802F00C02082AFAD1384B032238
:1001C0001A7040225A70354B1A789006FBD51A786F
:1001D0005106FCD5334B344A1A6002225A60334B25
:1001E00020221A702D4B1B7803F00C030C2BF9D135
:1001F0002F4B304A1A60304B4BF67F321A60002288
:100200005A60072243F8042C2C4AC3F80C2D62B61E
:1002100000F04AFB134B1B68DA0705D5284800F0AD
:10022000B7FA284B284A1A60284B1B785B0609D579
:10023000244C254A2368934204D1214800F0A8FAAF
:100240000023236002F092F901F0B4FA00F094FA6E
:10025000FEE700BF0E20054038800440823F0400C6
:100260000100002B14D0034002D0074000E00740FB
:1002700060E5FF1F4CEEFF1F243200004CEEFF1F15
:100280006CF1FF1F0000000000E1FF1F00E400E030
:100290002EE400E008ED00E0005006400640064075
:1002A0000440064044800440000003110040064022
:1002B00004800440C010050014E000E0000020208D
:1002C0007A206C561CE00340A5C3945A00F0074006
:1002D000FFFFFFFFFFFFFFFFFFFFFFFFFFFFFFFF2E
:1002E000FFFFFFFFFFFFFFFFFFFFFFFFFFFFFFFF1E
:1002F000FFFFFFFFFFFFFFFFFFFFFFFFFFFFFFFF0E
:10030000FFFFFFFFFFFFFFFFFFFFFFFFFFFFFFFFFD
:10031000FFFFFFFFFFFFFFFFFFFFFFFFFFFFFFFFED
:10032000FFFFFFFFFFFFFFFFFFFFFFFFFFFFFFFFDD
:10033000FFFFFFFFFFFFFFFFFFFFFFFFFFFFFFFFCD
:10034000FFFFFFFFFFFFFFFFFFFFFFFFFFFFFFFFBD
:10035000FFFFFFFFFFFFFFFFFFFFFFFFFFFFFFFFAD
:10036000FFFFFFFFFFFFFFFFFFFFFFFFFFFFFFFF9D
:10037000FFFFFFFFFFFFFFFFFFFFFFFFFFFFFFFF8D
:10038000FFFFFFFFFFFFFFFFFFFFFFFFFFFFFFFF7D
:10039000FFFFFFFFFFFFFFFFFFFFFFFFFFFFFFFF6D
:1003A000FFFFFFFFFFFFFFFFFFFFFFFFFFFFFFFF5D
:1003B000FFFFFFFFFFFFFFFFFFFFFFFFFFFFFFFF4D
:1003C000FFFFFFFFFFFFFFFFFFFFFFFFFFFFFFFF3D
:1003D000FFFFFFFFFFFFFFFFFFFFFFFFFFFFFFFF2D
:1003E000FFFFFFFFFFFFFFFFFFFFFFFFFFFFFFFF1D
:1003F000FFFFFFFFFFFFFFFFFFFFFFFFFFFFFFFF0D
:10040000FFFFFFFFFFFFFFFFFFFFFFFFFEFFFFFFFD
:1004100010B5054C237833B9044B13B10448AFF33E
:1004200000800123237010BD4CEEFF1F0000000070
:100430001C32000008B5064B1BB106480649AFF355
:1004400000800648036813B1054B03B1984708BD07
:10045000000000001C32000050EEFF1F4CEEFF1F9A
:100460000000000030B50D2085B0012100F0CEF96C
:100470000020022100F0CAF90B48002102F01CF80C
:1004800009480A2102F02EF8084B0FCB8DE80F0027
:100490006C460025605D0221043500F0B7F9102D8F
:1004A000F8D105B030BD00BF68EEFF1FD02E0000B0
:1004B00008B50B4802F018F888B1094802F042F874
:1004C00018B90D20012100F073F9054802F03AF83F
:1004D00028B10D200021BDE8084000F069B908BD31
:1004E00068EEFF1F10B5074C074801F0DDFF2046FE
:1004F00000F010F820460549054ABDE8104002F01A
:1005000025B800BF70EEFF1F68EEFF1F2D0500002D
:1005100060E5FF1F10B50446042000F035F9024BDA
:1005200003602060204610BD602F0000704708B5B2
:10053000036801601BB11A681846D268904708BD6D
:1005400070477047014B0360704700BFE82E000002
:100550007047FFFF014B0360704700BFE82E0000AB
:10056000014B0360704700BFE82E0000014B0360A1
:10057000704700BFE82E0000014B0360704700BFCA
:10058000E82E000001215A60002219701A7270478B
:10059000014B0360704700BFE82E000010B5034B0D
:1005A0000360044600F0F2F8204610BDE82E00007B
:1005B00010B5034B0360044600F0E8F8204610BD78
:1005C000E82E000010B5034B0360044600F0DEF88F
:1005D000204610BDE82E000010B5034B0360044612
:1005E00000F0D4F8204610BDE82E000010B5034BF3
:1005F0000360044600F0CAF8204610BDE82E000053
:1006000010B5034B0360044600F0C0F8204610BD4F
:10061000E82E000010B55A600C4600220121197026
:100620001A72042000F0B0F8034A02600146204626
:10063000BDE81040FFF77BBF002F000038B5012454
:100640005A601C701C7204200D4600F09DF8044A8C
:10065000026001462846BDE83840FFF768BF00BF8A
:10066000302F000038B501245A601C701C72042021
:100670000D4600F089F8044A026001462846BDE8AC
:100680003840FFF754BF00BF302F000010B55A604C
:100690000C460122002119701A72042000F074F82F
:1006A000034A026001462046BDE81040FFF73FBF05
:1006B000602F000038B500245A601C701C720420A2
:1006C0000D4600F061F8044A026001462846BDE884
:1006D0003840FFF72CBF00BF602F000010B55A60F4
:1006E0000C460022012119701A72042000F04CF807
:1006F000034A026001462046BDE81040FFF717BFDD
:10070000182F000010B55A600C4601220021197004
:100710001A72042000F038F8034A026001462046AD
:10072000BDE81040FFF703BF482F000038B5002494
:100730001C705A601C7210460D4600F011F801281A
:100740000ADC042000F020F8044A02600146284632
:10075000BDE83840FFF7EBBE38BD00BF602F00009A
:1007600000231A46C1180133497A012908BF013212
:10077000042BF7D11046704708B5FFF773FEFFF75B
:1007800097FE00F02BFEFAE701F018BF01F01EBF44
:10079000044B054900221A600A60044A10601022C6
:1007A0001A60704714D0034004D0034000D00340C7
:1007B000212810B518D80D4A52F8303093F88042ED
:1007C0003CB1012211B183F8802010BD83F80021D3
:1007D00010BD02EBC00043681A6811B142F0030279
:1007E00001E022F002021A6010BD00BF702F00006D
:1007F000212806D8044B53F8303093F80002C0B2D9
:1008000070470020704700BF702F0000212816D8C5
:100810000B4A02EBC00301295B6852F8302004D177
:1008200082F880124FF4A27208E0002082F8800261
:1008300011B94FF4807201E040F203121A60704760
:10084000702F000072B60B4B0B491A680B4B1B68DC
:10085000096862B6490102D5322A88BF0133C2F560
:100860003B4230217F32B2FBF1F24FF47A7000FB51
:100870000320704718E000E004ED00E074EEFF1F75
:1008800038B50446FFF7DEFF054664B1FFF7DAFF2F
:10089000401BB0F57A7F03D3013C04D005F57A758F
:1008A00000F09CFDF2E738BD1B4B4FF4807210B591
:1008B0001A604FF400721A604FF480621A604FF4AD
:1008C00000621A604FF480521A60144B144A154C9F
:1008D00000204BF6FF711860596028231360936065
:1008E000136193611362936213639363092222601D
:1008F00004F58054043420600B4801600B490B6000
:100900008B600B4B1A6000F0DFFE0420FFF7B8FF8E
:10091000BDE8104000F0CEBB04E100E004800340DD
:100920000C80034000800340089003400C9003407B
:1009300000900340F0B50C4B0C4C1A7842F00205C5
:1009400004EBC50682F00102706009481A7006784F
:10095000002E0CBF8827C82786F0010647EA014110
:10096000067044F83510F0BDE0EEFF1F00E0FF1FF9
:1009700058EFFF1F431E032B10B510D872B6094A5B
:1009800052F8230048B1416842F82310064A018812
:1009900032F81340611A22F8131062B610BD00201D
:1009A00010BD00BFD0EEFF1F58F1FF1F0138032814
:1009B0000AD872B6054B53F82030002013B101302D
:1009C0005B68FBE762B670470020704724EFFF1FAB
:1009D00010B572B60123174A1A4412F8012C1207F7
:1009E0001CD59900144A52F831402CB902EB43133C
:1009F00008305860114B09E041F0010152F83140D4
:100A000064B902EBC103083058600D4B42F8313035
:100A10000C4B1A78013A1A7062B610BD0133052BDF
:100A2000D9D162B6074B00221A70BDE8104000F021
:100A30009DBB00BF7031000000E0FF1F8800400038
:100A4000C80040004EEFFF1F431E032B30B532D8C5
:100A5000194A400140F01000104472B6174CE25C95
:100A6000032A09D8DFE802F016021805083002222E
:100A700013E00830042210E01148124A50F82340D5
:100A800014B940F8231002E052F82300416042F804
:100A900023100FE0032200E00522E25410F0080FBB
:100AA00001F108030A8843600CBF8823C82343EA86
:100AB0000243036062B630BD00E0FF1F8CEEFF1FF3
:100AC00024EFFF1F34EFFF1F2DE9F84FAB4F3C78A9
:100AD000E4B214F0040F3D4619D0A94B1B78A3B122
:100AE000A84A117801F0FF0321B1013BDBB213707A
:100AF00003B900BEA44A117801F0FF0329B1013BFC
:100B0000DBB213700BB900F045FC04233B7004F01A
:100B1000080303F0FF02002B00F063829B4B9C4C08
:100B20001A78D2B215094FEA920840F0E08104EB3E
:100B3000C803596854F83830C3F38303013B0C2BC6
:100B400000F2D281DFE813F091019101D001D001D0
:100B5000D001D001D001D001AC01D001D001D00131
:100B60000D008C4D0A684B688B486B6001218B4BE4
:100B700044F838302A60DFF85082017092B240F2B7
:100B8000816000238242C8F800302361A36117D836
:100B9000B2F5D06F80F01E81B2F5817F00F0CF807A
:100BA00006D8802A00F0BA80822A00F0BB802DE1AE
:100BB00040F202339A4200F0D180B2F5A06F1CE0FF
:100BC00042F22100824200F04D810ED8B2F5086F4A
:100BD00000F09E80B2F5106F40F01881684B6C4EAB
:100BE000AA781A7006F180090AE042F221218A42AD
:100BF00000F0088142F221339A4200F00B8105E1B6
:100C0000336A1B0603D5706A083800F0AFFA08365D
:100C10004E45F5D10026B146DFF8B0A156F80A00DE
:100C200028B1D0F804B000F0A1FA5846F8E74AF825
:100C300006005B4BDFF898A1F05056F80A0028B187
:100C4000D0F804B000F092FA5846F8E7554B4AF84D
:100C50000600F050544B23F81900544B19F80320A8
:100C6000023A032A08D8DFE802F002040204002254
:100C700000E0012203F8092009F10109B9F1040F8C
:100C800006F10406C8D14A4B00221A7001269A4682
:100C9000484A494B3244334412F8012C9B0012F06D
:100CA000080F1A704FEA860925D000F041FA38B1D2
:100CB00004EB461308305860404B44F8393006E0E6
:100CC0009AF8003044F8390001338AF8003000F017
:100CD0002FFA49F0010338B104EBC3020830506029
:100CE0002E4A44F8332006E044F833009AF80030E6
:100CF00001338AF8003049F00202013649F0030955
:100D00000023052E44F8323044F83930C0D182E057
:100D10001B4B2B4C1B7823700B467FE0284C237019
:100D200063707AE0AA88042A70D8254C9200237058
:100D30006370244B9B5C9E076FD521706DE0AA8881
:100D400002F07F03042B61DC6B88002B5ED19100E5
:100D50001C4A0A44117821F0020155E0AA8802F0E9
:100D60007F03042B52DC6B88002B4FD19100154A76
:100D70000A44117841F0020146E000BF802007409C
:100D800057EFFF1FE1EEFF1F59EFFF1F90200740B5
:100D900000E0FF1F44EFFF1F58EFFF1FC800400097
:100DA0007CEEFF1F34EFFF1F58F1FF1F8CEEFF1F7B
:100DB0004EEFFF1F7031000030C801108800400066
:100DC0004FEFFF1FC020074078EEFF1FD0EEFF1F40
:100DD00024EFFF1F6A88A9889D4B53F8084CA3F1A4
:100DE0000C009CB133F80C6C964209D133F80A6CB4
:100DF0008E4205D1120A032A0CBF237803890DE025
:100E00000C33EAE7A978934A117004E0924B0F2261
:100E10001A7027E000231C4600E00223EE88B3424C
:100E200038BF1E46402E34BF354640252046294651
:100E3000FFF780FD761B2C4403D1402D12D135469F
:100E400003E0402E34BF3546402520462946FFF7B3
:100E500071FD761B2C4401D1402D03D17F4AC8F887
:100E60000040168001227E4B3DE07E4B1A8842F204
:100E700021039A4210D100237B4AC85C9854013365
:100E8000072BF9D11368862B02D1784B0F221A70E9
:100E900000200146FFF74EFD754B44F8383023E043
:100EA000744E3568B5B1DFF8B481B8F80090B9F187
:100EB000400F34BF4C46402428462146FFF73AFDF8
:100EC000C4EB09039BB2A8F800300BB9402C00D149
:100ED0002B193360634B1A88B2F5A06F04D100223E
:100EE0005A709A78644B1A7001225D4B6CE004EBE7
:100EF000C806013D736802F00802A3F10800EDB2D4
:100F000002F0FF01002A36D000F030F95B485C4B5C
:100F100050F82520EAB1516840F8251002F1080187
:100F20007160595D03290BD8DFE801F0020406085F
:100F3000032104E0022102E0052100E004215955CB
:100F400016F0080F12880CBF8823C82343EA024317
:100F500042E05A5D032A07D8DFE802F0404002046D
:100F6000002206E0012204E016F0080F0CBF022266
:100F700003225A5532E054F83820120C23F8082C7A
:100F800022B3DFF82CE123F8061C43F8041C5EF8BA
:100F900025303C4913B94EF8250002E051F82530C0
:100FA0005860394B41F8250033F815100A4423F8EE
:100FB000152000F0BDF810B10830706006E0334B2A
:100FC00044F838001A7801321A7007E0284B304A8A
:100FD00016F0080F08BF134644F8383008233B705A
:100FE00074E5E0071FD51E4929482A4C02230B70DF
:100FF000294B1A70294B186098602948D8601A61EB
:101000009A615C60144B0D2018702648FF23037012
:101010002B700274244A1370244B9F221A700123F0
:101020000B70BDE8F88F210604D50B4B0D221A700A
:1010300080232B70A20705D51A4B1A78D2B21A70EA
:1010400002232B70E30644BF10232B70BDE8F88FFA
:101050008031000068EFFF1FC02007404CEFFF1FEA
:101060009420074044EFFF1F60F1FF1FE1EEFF1FD8
:10107000C800400078EEFF1F9820074024EFFF1FB4
:101080008CEEFF1F7CEEFF1F58F1FF1F4EEFFF1F7E
:101090008800400090EEFF1FE0EEFF1F00E0FF1F02
:1010A000E4EEFF1F882007408C2007408420074083
:1010B000D0EEFF1F08B501F083F90022184B002184
:1010C000D15098180832882A4160F7D1154A106823
:1010D00040F48020106002F528326832C3F3072004
:1010E0001070C3F307401B0E10751376FF2302F830
:1010F0001C3C02F8143C02F88C3C012302F8083C2A
:1011000082F8641002F8183C074B70221A70A3F2A0
:101110001F3308221A60054B10221A7008BD00BF49
:1011200000E0FF1F3480044023E400E00821074072
:1011300072B60C4A1168B1FA81F30B2B02D962B670
:10114000002070474FF00040D84021EA00011160B4
:1011500062B6054948225343C8180022CA5042606B
:10116000704700BF64E5FF1F00E2FF1F0C4B4822E1
:10117000C31AB3FBF2F30B2B11D80A4A127822B12F
:10118000094A12780AB1FFF723BC72B6074A4FF03A
:10119000004121FA03F311681943116062B67047E8
:1011A00000E2FF1F4EEFFF1F57EFFF1F64E5FF1F19
:1011B00010B5104C23686BB120684288531C024460
:1011C000147A0288934212D3FFF7D0FF094B002212
:1011D0001A600DE0084B1B7813B94FF0FF3010BDBB
:1011E0000320FFF7C7FB20600028E5D1F5E7438027
:1011F000204610BD64EFFF1F57EFFF1F10B50B4CCB
:10120000236813B123686BB902E0094B1B7813B94B
:101210004FF0FF3010BD0320FFF7ACFB206000282B
:10122000F0D1F5E75A881344187A10BD64EFFF1F18
:1012300057EFFF1F044B9888044B1B681BB11A889B
:101240005B88D31A1844704758F1FF1F64EFFF1FE3
:101250002DE9F8432D4E012307460C463370002C30
:101260004FD02B4D2B68A9462BBB47F20958294B71
:101270001B7803F0FF020BB9327015E00420FFF772
:1012800095FB072808D801233370FFF751FFC9F8F1
:10129000000080B91D4B1870B8F101081E4B01D039
:1012A0001A782AB101221A704FF0FF30BDE8F88396
:1012B00000F094F8DBE72968174A48880023137088
:1012C000C0F14002944238BF224600F1080C10449D
:1012D0008C444880A41A934204D0F85C0CF80300B4
:1012E0000133F8E71F444B883F2B06D940230B807E
:1012F0000420FFF7A9FB00232B60084B05221A707E
:10130000ADE734702046BDE8F88300BF5AEFFF1FF9
:101310005CEFFF1F57EFFF1F60EFFF1F59EFFF1F2D
:1013200007B502AB012103F8010D1846FFF790FF46
:1013300003B05DF804FBFFFF2DE9F041114B1B7872
:10134000F3B1114E114B3468114D01271F709846AF
:101350004CB1002763882F70042023802146FFF7BB
:1013600073FB376009E0FFF7E3FE014620B104207C
:101370002C70FFF769FB00E02F70002388F8003025
:10138000BDE8F08157EFFF1F5CEFFF1F5AEFFF1F13
:1013900059EFFF1F38B50E4B1B7803F0FF05ABB9B3
:1013A0000C4C216831B14B880B800420FFF74CFBBB
:1013B000256038BDFFF7BCFE014620B10420BDE822
:1013C0003840FFF741BB044B01221A7038BD00BF03
:1013D0005AEFFF1F5CEFFF1F59EFFF1F10B50E4CB8
:1013E0002378BBB901232370FFF724FF08B101F074
:1013F0002EF800F085FB08B100F072F800F078FDDF
:1014000008B100F0DFF800F039FF08B100F04CF946
:101410000023237010BD00BF69EFFF1F08B50368EC
:10142000C9B21B68984708BD08B50368C9B21B68F4
:10143000984708BD08B50368C9B21B68984708BD3E
:1014400008B50368C9B21B68984708BD4B0803F18B
:10145000B76000F55840B0FBF1F000F0D5B910B519
:101460004B0803F1B76000F558401446B0FBF1F0AB
:1014700000F0CAF92046BDE8104000F00BBA00F0B9
:1014800033BA084600F05CBA00F03ABB00F062BB29
:1014900000F046BB00F018BB00F074BB00F01EBBB0
:1014A00008B5084600F068FA012008BD08B50846EE
:1014B00000F062FA012008BD10B508461446114636
:1014C00000F0A4FA204610BD38B508460D4601F0DC
:1014D00037FB04462146284600F098FA204638BDDE
:1014E0007047FFFF044B00221A714FF47A711A7390
:1014F000024A99601A6070476CEFFF1F8830000045
:1015000008B50368C9B21B68984708BD08B50368E9
:10151000C9B21B68984708BD08B50368C9B21B6803
:10152000984708BD08B50368C9B21B68984708BD4D
:101530004B0803F1B76000F55840B0FBF1F000F044
:10154000B3BB10B54B0803F1B76000F55840144623
:10155000B0FBF1F000F0A8FB2046BDE8104000F021
:10156000E3BB00F00BBC084600F034BC00F0C0BC8C
:1015700000F0E8BC00F0CCBC00F09EBC00F0FABC6F
:1015800000F0A4BC08B5084600F040FC012008BDEE
:1015900008B5084600F03AFC012008BD10B5084621
:1015A0001446114600F07CFC204610BD38B50846B4
:1015B0000D4601F0C5FA04462146284600F070FCAD
:1015C000204638BD7047FFFF044B00221A714FF4CC
:1015D0007A711A73024A99601A6070477CEFFF1F94
:1015E000D830000008B50368C9B21B68984708BD29
:1015F00008B50368C9B21B68984708BD08B50368F9
:10160000C9B21B68984708BD08B50368C9B21B6812
:10161000984708BD4B0803F1B76000F55840B0FB90
:10162000F1F000F007BD10B54B0803F1B76000F50D
:1016300058401446B0FBF1F000F0FCFC2046BDE839
:10164000104000F037BD00F05FBD084600F088BDD7
:1016500000F014BE00F03CBE00F020BE00F0F2BD71
:1016600000F04EBE00F0F8BD08B5084600F094FD4D
:10167000012008BD08B5084600F08EFD012008BD18
:1016800010B508461446114600F0D0FD204610BDA6
:1016900038B508460D4601F053FA0446214628465F
:1016A00000F0C4FD204638BD7047FFFF044B002208
:1016B0001A714FF47A711A73024A99601A6070476E
:1016C0008CEFFF1F283100001B4B60221A70E122B3
:1016D0005A701A4B1A4A19781A4B082901D101215C
:1016E00002E00A2903D139211160132205E00C29F7
:1016F0000CBF35213D21116012221A60124B1A785D
:10170000124B02B101221A60114B1A78114B012AB7
:1017100001D880220BE0042A01D8842207E0082A9D
:1017200001D8852203E0102A94BF862287221A60FE
:10173000094B01221A7070470040074068E5FF1FFF
:1017400008B003400CB003409DEFFF1F20B00340E2
:1017500069E5FF1F24B003409CEFFF1F024B1A688E
:1017600001321A60704700BF74EEFF1F08B50B4CC2
:101770002368580301D5FFF7A7F92368590501D558
:1017800000F01EFA23681A0501D500F0FDFB23685E
:10179000DB04ECD500F0BEFDE9E700BF3480044077
:1017A00008B5FFF7E3FFFFFF014B10221A807047D7
:1017B000002005407047FFFF024A1368184410607C
:1017C000184670476CE5FF1FEFF31383ABB9EFF3D7
:1017D0001083ABB9EFF3058323B10F2B05D9094A69
:1017E000985C03E04FF4807000E00020EFF3118379
:1017F0003BB1834238BF184670474FF0FF30704707
:1018000000207047F0E300E0194B1A6842F4806250
:101810001A60184A00231370174A1370174A13707E
:10182000174A1370174A1370174B40F213321A609D
:101830004FF451725A60154BC0F344321A70C0F322
:1018400047125A7000F01F000422022198729A7009
:10185000D9745A7588221A743C22DA700C4B4022D3
:101860001A70A3F544734FF480321A60704700BFBA
:101870003480044020F0FF1F9FEFFF1F28F0FF1F60
:1018800021F0FF1F9EEFFF1F40A0044000A0064074
:1018900010E400E0134A937800F0030103F0EC0336
:1018A0000B43410748BF43F01003937000F00F0350
:1018B000042B0C4903D18B7943F040038B7153798E
:1018C000C20603F0EF03074A48BF43F01003537109
:1018D0009379810603F0EF0348BF43F0100393713F
:1018E000704700BF00A0064008B50E4B1B685B05A3
:1018F00000D408BD0C4B1A7802F0FF0312B1FFF7B9
:101900006DFDF7E7094A4FF480311160084A094933
:10191000D37040F203120A604A60074A1370074A04
:10192000137008BD348004409EEFFF1F80E100E08B
:1019300000A0064040A0044020F0FF1F9FEFFF1FC3
:1019400038B50446094B1B7803F0FF05002BF9D18D
:1019500020460121FEF75AFF20462946FEF728FFC0
:10196000034B53F83420034B1A6038BD9EEFFF1F22
:10197000702F000024F0FF1FF8B51D4B1B685A059F
:10198000064633D51B4B1B680BB101221A701A4B4C
:101990001C780134402C1F4628BF0024174D2B789B
:1019A000A34218D1FFF710FF40280FDC144A137927
:1019B0001B06F3D52B7813490133402B28BF002396
:1019C000C95CDBB2C9B2D1712B70E7E7FF28E5DD56
:1019D000FFF704FDE2E70B4BF6B21E550A4B01225E
:1019E0001A70074BE4B2BC223C70DA70F8BD00BF3D
:1019F0003480044024F0FF1F28F0FF1F21F0FF1F58
:101A000000A00640A0EFFF1F9EEFFF1F274B1B68A3
:101A10005A052DE9F04707468A4644D5244B1B68F2
:101A20000BB101221A703D4607EB0A039D4237D2E3
:101A3000DFF890801F4E98F8004096F8009001342F
:101A4000402C28BF00245FFA89F9A1451DD11A4B0B
:101A5000BC22DA70FFF7B8FE40280FDC164A137973
:101A60001B060FD5337815490133402B28BF0023BF
:101A7000C95CDBB2C9B2D171337003E0FF2801DD6C
:101A8000FFF7ACFC33784B45E4D00C4B15F8012B39
:101A90001A550B4B0122E4B21A7088F80040C3E7D4
:101AA000054BBC22DA70BDE8F08700BF34800440EB
:101AB00024F0FF1F21F0FF1F00A00640A0EFFF1F32
:101AC0009EEFFF1F28F0FF1F08B5034B1B7813B1D3
:101AD000FFF784FCF9E708BD9EEFFF1F064A074B9E
:101AE0001B781078DBB2C0B283422CBF3F3000F1CC
:101AF000FF30C01A704700BF21F0FF1F28F0FF1F02
:101B0000054B1878054B1B78C0B2DBB2984238BF42
:101B10004030C01A704700BF20F0FF1F9FEFFF1F2B
:101B2000094B0A4A19781378DBB2994208D001337D
:101B3000402B28BF00230649C85CDBB213707047F6
:101B40004FF0FF30704700BF20F0FF1F9FEFFF1FD7
:101B5000E0EFFF1F084B1A78084B1B78DBB29A4264
:101B600007D00133402B28BF0023054AD05CC0B208
:101B700070474FF0FF30704720F0FF1F9FEFFF1FAF
:101B8000E0EFFF1F0A4B1B685B050FD5094BDA78A6
:101B900002F0CB02DA7040225A74DA7842F0340252
:101BA000DA70054B1A78054BD2B21A70704700BF35
:101BB0003480044000A006409FEFFF1F20F0FF1F6D
:101BC00030B5304B1A7912F0300F23D072B69A7DAF
:101BD00002F0FF0122B9DA7940225A7462B619E0A4
:101BE00062B6294B29481A780478D2B2E4B2184672
:101BF000244BDD79531C402B28BF0023A342EDB2B8
:101C000002D0234AD5541A464B1E13F0FF01EFD1E0
:101C1000D2B202701B4BD978C9B20C0620D51B7901
:101C200018061DD51B4B1C4A1D781378EDB2DBB28C
:101C30001046AB420CD0134A0133402B1479174C99
:101C400028BF0023E45CE4B2D471127D072AF0D9E6
:101C5000DBB203700B4B1A79120644BF7C22DA7098
:101C60004B060ED5074B1A7912F0400F194608D0D3
:101C70000B4B00221A700B4B1B6803B11A703C23EC
:101C8000CB7030BD00A0064020F0FF1F9FEFFF1F6C
:101C9000E0EFFF1F28F0FF1F21F0FF1FA0EFFF1F45
:101CA0009EEFFF1F24F0FF1F164B1A6842F40062DC
:101CB0001A60154A00231370144A1370144A1370E3
:101CC000144A1370144A1370144A40F2133111600D
:101CD0004FF451715160124AC0F344311170C0F396
:101CE000471100F01F0051709072937013742C23F1
:101CF000D3700C4B40221A70A3F212334FF480229F
:101D00001A6070473480044093F0FF1F2AF0FF1FD1
:101D10009CF0FF1F94F0FF1F29F0FF1F0CB0044040
:101D200000B0064012E400E0134A937800F003018B
:101D300003F0EC030B43410748BF43F010039370DB
:101D400000F00F03042B0C4903D18B7943F04003BF
:101D50008B715379C20603F0EF03074A48BF43F083
:101D6000100353719379810603F0EF0348BF43F0EA
:101D700010039371704700BF00B0064008B50E4BCA
:101D80001B681B0500D408BD0C4B1A7802F0FF033A
:101D900012B1FFF723FBF7E7094A4FF480211160E6
:101DA000084A0949D37040F203120A604A60074AA0
:101DB0001370074A137008BD3480044029F0FF1FD8
:101DC00080E100E000B006400CB0044093F0FF1F3B
:101DD0002AF0FF1F38B50446094B1B7803F0FF05B6
:101DE000002BF9D120460121FEF710FD204629469F
:101DF000FEF7DEFC034B53F83420034B1A6038BD6A
:101E000029F0FF1F702F000098F0FF1FF8B51D4B41
:101E10001B681A05064633D51B4B1B680BB1012204
:101E20001A701A4B1C780134282C1F4628BF002436
:101E3000174D2B78A34218D1FFF7C6FC40280FDCC2
:101E4000144A13791B06F3D52B7813490133282B39
:101E500028BF0023C95CDBB2C9B2D1712B70E7E7A0
:101E6000FF28E5DDFFF7BAFAE2E70B4BF6B21E55A5
:101E70000A4B01221A70074BE4B2AC223C70DA70B4
:101E8000F8BD00BF3480044098F0FF1F9CF0FF1F96
:101E900094F0FF1F00B006402BF0FF1F29F0FF1F3A
:101EA00038B504464518AC4204D014F8010BFFF7CE
:101EB000ADFFF8E738BDFFFF08B5034B1B7813B142
:101EC000FFF78CFAF9E708BD29F0FF1F064A074B18
:101ED0001B781078DBB2C0B283422CBF273000F1F0
:101EE000FF30C01A704700BF94F0FF1F9CF0FF1F27
:101EF000054B1878054B1B78C0B2DBB2984238BF4F
:101F00004030C01A704700BF93F0FF1F2AF0FF1F38
:101F1000094B0A4A19781378DBB2994208D0013389
:101F2000402B28BF00230649C85CDBB21370704702
:101F30004FF0FF30704700BF93F0FF1F2AF0FF1FE4
:101F400053F0FF1F084B1A78084B1B78DBB29A42FC
:101F500007D00133402B28BF0023054AD05CC0B214
:101F600070474FF0FF30704793F0FF1F2AF0FF1FBC
:101F700053F0FF1F024B1A78024BD2B21A7070470F
:101F80002AF0FF1F93F0FF1F10B5214B1A7992061C
:101F90000FD5204AD87913781F490133402B09788F
:101FA00028BF00238B42C0B203D01C49C854DBB207
:101FB0001370174AD178C9B20C0616D513791806D2
:101FC00013D5174B17481C780378DBB29C4202D11B
:101FD0006C23D37009E00133282B28BF0023124C57
:101FE000E45CDBB2E4B2D47103704B060ED5084B4F
:101FF0001A7912F0400F194608D00C4B00221A70C3
:102000000B4B1B6803B11A702C23CB7010BD00BFA3
:1020100000B0064093F0FF1F2AF0FF1F53F0FF1F90
:102020009CF0FF1F94F0FF1F2BF0FF1F29F0FF1FF4
:1020300098F0FF1F164B1A6842F480521A60154A36
:1020400000231370144A1370144A1370144A137047
:10205000144A1370144A40F2133111604FF4517155
:102060005160124AC0F344311170C0F3471100F0BF
:102070001F0051709072937013742C23D3700C4B0B
:1020800040221A70A3F545734FF480121A6070470E
:102090003480044007F1FF1F9EF0FF1F10F1FF1F67
:1020A00008F1FF1F9DF0FF1F08C0044000C006405C
:1020B00014E400E0134A937800F0030103F0EC030A
:1020C0000B43410748BF43F01003937000F00F0328
:1020D000042B0C4903D18B7943F040038B71537966
:1020E000C20603F0EF03074A48BF43F010035371E1
:1020F0009379810603F0EF0348BF43F01003937117
:10210000704700BF00C0064008B50E4B1B68DB04DB
:1021100000D408BD0C4B1A7802F0FF0312B1FFF790
:102120005DF9F7E7094A4FF480111160084A09493F
:10213000D37040F203120A604A60074A1370074ADC
:10214000137008BD348004409DF0FF1F80E100E063
:1021500000C0064008C0044007F1FF1F9EF0FF1FAB
:1021600038B50446094B1B7803F0FF05002BF9D165
:1021700020460121FEF74AFB20462946FEF718FBC0
:10218000034B53F83420034B1A6038BD9DF0FF1FFA
:10219000702F00000CF1FF1FF8B51D4B1B68DA040F
:1021A000064633D51B4B1B680BB101221A701A4B24
:1021B0001C780134282C1F4628BF0024174D2B788B
:1021C000A34218D1FFF700FB40280FDC144A137913
:1021D0001B06F3D52B7813490133282B28BF002386
:1021E000C95CDBB2C9B2D1712B70E7E7FF28E5DD2E
:1021F000FFF7F4F8E2E70B4BF6B21E550A4B01224B
:102200001A70074BE4B2AC223C70DA70F8BD00BF24
:10221000348004400CF1FF1F10F1FF1F08F1FF1F75
:1022200000C006409FF0FF1F9DF0FF1F38B5044619
:102230004518AC4204D014F8010BFFF7ADFFF8E7E6
:1022400038BDFFFF08B5034B1B7813B1FFF7C6F885
:10225000F9E708BD9DF0FF1F064A074B1B78107871
:10226000DBB2C0B283422CBF273000F1FF30C01A6E
:10227000704700BF08F1FF1F10F1FF1F054B1878D2
:10228000054B1B78C0B2DBB2984238BF4030C01A51
:10229000704700BF07F1FF1F9EF0FF1F094B0A4A5E
:1022A00019781378DBB2994208D00133402B28BF4C
:1022B00000230649C85CDBB2137070474FF0FF3053
:1022C000704700BF07F1FF1F9EF0FF1FC7F0FF1F01
:1022D000084B1A78084B1B78DBB29A4207D00133BF
:1022E000402B28BF0023054AD05CC0B270474FF096
:1022F000FF30704707F1FF1F9EF0FF1FC7F0FF1F61
:10230000024B1A78024BD2B21A7070479EF0FF1F30
:1023100007F1FF1F10B5214B1A7992060FD5204AFD
:10232000D87913781F490133402B097828BF00233F
:102330008B42C0B203D01C49C854DBB21370174A99
:10234000D178C9B20C0616D51379180613D5174BD8
:1023500017481C780378DBB29C4202D16C23D370FF
:1023600009E00133282B28BF0023124CE45CDBB2C8
:10237000E4B2D47103704B060ED5084B1A7912F0F3
:10238000400F194608D00C4B00221A700B4B1B68EB
:1023900003B11A702C23CB7010BD00BF00C00640E3
:1023A00007F1FF1F9EF0FF1FC7F0FF1F10F1FF1F77
:1023B00008F1FF1F9FF0FF1F9DF0FF1F0CF1FF1F93
:1023C0001FB572B6154B70221A70154A4121117053
:1023D0000F2102F8011C80221A701A781206FCD50F
:1023E000104B186862B6104B984298BF0A2301AC94
:1023F00098BF584321460A2200F038F80023E15CD8
:102400000A4A29B102EB430001330A2B4180F6D17D
:1024100001335B00137004B010BD00BF0000024028
:1024200007000240080002407F969800F8E5FF1F71
:10243000FEF700BFFEF7BCBEFEF7E0BEFEF77CBFB6
:102440000846FEF76DBF08461146FEF701BF70470C
:10245000044B00221A714FF47A711A73024A996080
:102460001A60704714F1FF1FD031000010B500232F
:10247000B0FBF2F402FB1400092894BF303037306F
:10248000C0B2C85420460CB10133F1E7CA185470E9
:1024900022469A4206DA885CCC5C8C54C8540132DD
:1024A000013BF6E7084610BD00220A210260818048
:1024B0008271C2717047FFFF38B5CDB20446C57155
:1024C0002846FEF795F90023A3712846FEF790F9F8
:1024D00008B10323A371024B1B68236038BD00BF02
:1024E00074EEFF1F8180704770B50446C079FEF717
:1024F0007FF9A1790030C1F3400218BF012001F03B
:10250000F7039042A3710E4A04D01268226083F050
:1025100002030FE016682568751BA688B5420AD32A
:1025200001F00101814206D01268226083F00103AC
:1025300043F00803A371A079C0F3C00070BD00BFD1
:1025400074EEFF1F807900F00100704703460846D3
:10255000194600F001B800BF10B40C4613460146FE
:10256000224602205DF8044B00F01ABB70B50F4EF6
:102570000F4D761BB61007D0043D0024013455F8EA
:10258000043F9847A642F9D10A4E0B4D761B00F046
:102590002FFEB61008D0043D0024013455F8043F46
:1025A0009847A642F9D170BD70BD00BFFC31000054
:1025B000FC31000018320000FC310000024B0146E3
:1025C000186800F00BB800BF38EAFF1F024B014645
:1025D000186800F0AFBB00BF38EAFF1F2DE9F04FCD
:1025E00001F10B05162D83B0064627D935F00705F6
:1025F00027D4A94225D8304600F08CFAB5F5FC7FE7
:1026000026D2C14F4FEAD50C07EBCC03DC689C42C5
:1026100000F0D2816368E268A16823F003032344D9
:1026200030465D68CA6045F0010591605D6000F06C
:1026300073FA0834204603B0BDE8F08F1025A94294
:10264000D9D900240C232046336003B0BDE8F08FB5
:102650005FEA552C00F08A80BCF1040F00F2608123
:102660004FEA951C0CF1380C4FEA4C01A64F07EBD2
:102670008101CC68A14205D10CE0002B7ADAE46834
:10268000A14207D0626822F00302531B0F2BF4DD36
:102690000CF1FF3C0CF1010C9B4B3C6903F1080E63
:1026A000744500F07E81616821F003014A1B0F2A06
:1026B00000F36481002AC3F814E0C3F810E06ADA7A
:1026C000B1F5007F80F03A81C90803EBC1004FEA01
:1026D000A1085A688168A1604FF0010909FA08F859
:1026E00048EA0202E0605A608460CC604FEAAC03C2
:1026F0000120984090425BD8024206D12CF0030C96
:10270000400002420CF1040CFAD007EBCC0844461E
:10271000E146E3689C4207D145E1002A80F25681F8
:10272000DB689C4200F03F81596821F003014A1B9D
:102730000F2AF2DD1C46D3F80CC054F8088F591943
:1027400045F0010942F00105C3F804903046C8F88D
:102750000CC0CCF8088079613961C1F80CE0C1F88F
:1027600008E04D608A5000F0D7F963E77E214FF012
:102770003F0C7BE72244E3685068A16840F0010504
:10278000CB6030469960556000F0C6F908342046A9
:1027900003B0BDE8F08F214430464B6843F001039D
:1027A0004B6000F0B9F90834204603B0BDE8F08F63
:1027B000BC68636823F00309A94504D3C5EB09038A
:1027C0000F2B00F39180514B514A19681368013364
:1027D00005EB010A04EB090B00F061810AF5805A50
:1027E0000AF10F0A2AF47F6A2AF00F0A304651468E
:1027F000019200F093F9B0F1FF3F8046019A00F09A
:102800000081834500F2FA80DFF810C1DCF8003067
:10281000C3455344CCF8003000F04A8112683C496B
:1028200001321BBFCBEB080B5B44C1F80080CCF836
:10283000003018F0070300F01381C3F10802C3F55C
:10284000805390440833C244CAF30B0ACAEB030A0C
:1028500051463046CDF804C000F060F9431CDDF865
:1028600004C000F03581C8EB0002524442F001027E
:10287000DCF80030C7F808805344BC42C8F8042094
:10288000CCF80030DFF894A015D0B9F10F0F40F26A
:10289000EA806168A9F10C0222F0070201F0010E42
:1028A000A118052042EA0E0E0F2AC4F804E0486081
:1028B000886000F21181174ABC6811688B4288BF9A
:1028C0001360154A11688B4288BF1360626822F05A
:1028D00003029542C5EB020301D80F2B04DC3046FE
:1028E00000F01AF90024A5E6621943F0010345F04F
:1028F000010565603046BA60536000F00DF9083498
:10290000204603B0BDE8F08F3CEAFF1F2CF1FF1F0B
:1029100048EEFF1F28F1FF1F24F1FF1F30F1FF1FBA
:10292000BCF1140F61D9BCF1540F00F28F804FEA53
:10293000153C0CF16E0C4FEA4C0197E64B0A042B48
:1029400058D9142B00F2AE8003F15B02500007EB64
:102950008000DFF8BC818368834200F08A805A6877
:1029600022F00302914202D29B689842F7D1D968C3
:102970007A68E160A3608C60DC60B7E6611942F0C0
:10298000010745F001056560304659611961C1F8DC
:102990000CE0C1F808E04F608A50083400F0BCF841
:1029A00048E65A68A2E609F1010919F0030F04F19B
:1029B00008047FF4AEAE2DE004F108036469A3427D
:1029C00008BF0CF1020C3FF467AE23E619441C4625
:1029D0004868DB6854F8082F40F001054D60304628
:1029E000D3609A6000F098F824E60CF15B0C4FEA93
:1029F0004C013BE68A0938325000A8E7BC423FF45C
:102A000003AFBC68626822F0030262E7D8F8008076
:102A100098457BD11CF0030FA8F108030CF1FF3C93
:102A2000F4D17B6823EA00037B60400098423FF6C4
:102A3000BFAE00283FF4BCAE0342CC467FF465AE87
:102A4000400003420CF1040CFAD05EE6BCF5AA7F0C
:102A50001AD84FEAD53C0CF1770C4FEA4C0105E649
:102A60004FF48053EFE60123C8F8043044460022B7
:102A70002FE791100120D8F8042000FA01F10A4351
:102A8000C8F80420194674E740F254539C451BD8FB
:102A90004FEA954C0CF17C0C4FEA4C01E6E50AF14B
:102AA000100AA3E6542B1FD80A0B6E3250004EE7D3
:102AB000CBF30B0100297FF4B1AE0AEB0901BA6830
:102AC00041F001015160F6E6FC214FF07E0CCDE5AE
:102AD00001224FF0000ACBE604F10801304600F075
:102AE00029F9DAF80030E6E6B3F5AA7F03D8CA0B75
:102AF000773250002BE740F25452934203D88A0CAD
:102B00007C32500023E7FC207E2220E77B688CE7A4
:102B10003CEAFF1F704700BF704700BF38B5074C45
:102B20000023054608462360FEF746FE431C00D0FE
:102B300038BD2368002BFBD02B6038BD68F1FF1F28
:102B400020F0030110F00300C0F1000051F8043B35
:102B500000F1040C4FEACC0C6FF000021CBF22FA0B
:102B60000CF213434FF0010C4CEA0C2C4CEA0C4CC9
:102B7000A3EB0C0222EA030212EACC1204BF51F8C2
:102B8000043B0430F4D013F0FF0F1FBF013013F4E7
:102B90007F4F013013F47F0F18BF0130704700BF23
:102BA000F0B5274C2668D6F8484185B00746002C7A
:102BB00041D065681F2D1EDD224818B94FF0FF3047
:102BC00005B0F0BD4FF4C870039102920193FFF776
:102BD000F5FC0399029A019B04460028EED0D6F832
:102BE00048512560002060600546C6F84841C4F899
:102BF0008801C4F88C013FB9AB1C00200135656029
:102C000044F8231005B0F0BD04EB85004FF0010C33
:102C1000C0F88820D4F888610CFA05F21643022F18
:102C2000C4F88861C0F80831E6D1D4F88C311A4371
:102C3000C4F88C21E0E706F5A674C6F84841B8E769
:102C4000EC310000BD250000024B13B1024800F03A
:102C500005B8704700000000692C00000146002004
:102C600002460346FFF79CBF38B5094D094C641B6B
:102C7000A41018BF05EB840505D0013C55F8043DB0
:102C80009847002CF9D1BDE8384000F0C5BA00BF24
:102C90000000000000000000F8B5234D0F46044678
:102CA000FFF738FFAB685E6826F00306F11B01F6FC
:102CB000EF7121F47F6121F00F01A1F58057B7F585
:102CC000805F07DB20460021FFF728FFAB68334415
:102CD000984204D02046FFF71FFF0020F8BD204691
:102CE0007942FFF71BFF01300DD0104BAA6819681D
:102CF000F61B46F001062046C91B56601960FFF717
:102D00000BFF0120F8BD20460021FFF707FFAB684D
:102D1000C21A0F2ADEDD064D04492D6842F0010279
:102D2000401B5A600860D5E73CEAFF1F30F1FF1FE7
:102D300048EEFF1F2DE9F0410D460646002955D00B
:102D4000FFF7E8FE55F8041CDFF874C121F0010319
:102D5000A5F10804E218DCF808005768904227F053
:102D6000030769D011F00101576032D00021D0195A
:102D70004068C00706D43B44906800294ED0D26812
:102D8000C260906043F001026260E350E1B9B3F5C4
:102D9000007F2DD35A0A042A6AD898093830410096
:102DA0000CEB810C4649DCF80820624566D051687E
:102DB00021F003018B4202D292689445F7D1D36887
:102DC000E360A2609C60D4603046BDE8F041FFF74C
:102DD000A3BE55F8085C641B0CF10808A0684045C8
:102DE0002B4443D0E568C560A860C0E7BDE8F0812A
:102DF000DB080CEBC3020125DCF804009168A1603C
:102E00009B1005FA03F31843E260CCF804009460C9
:102E10003046CC60BDE8F041FFF77EBE294DA842A8
:102E2000ADD143F00102CCF81440CCF81040E06082
:102E3000A0606260E350C7E71F44CB0707D455F892
:102E4000083CE41A1F44A268E368D3609A601E4BF2
:102E50001B6847F001029F426260CCF80840B3D380
:102E60001A4B30461968FFF717FFADE701217EE7DF
:102E7000142A0CD802F15B00410091E74B688010E6
:102E8000012505FA00F003434B60134698E7542AE6
:102E900003D8180B6E30410082E7B2F5AA7F03D841
:102EA000D80B773041007BE740F254518A4203D877
:102EB000980C7C30410073E7FC217E2070E700BF56
:102EC0003CEAFF1F44EAFF1F44EEFF1F2CF1FF1FE7
:102ED00001000000020000000300000004000000E8
:102EE0000000000000000000410500004305000054
:102EF000450500009D0500000000000000000000E6
:102F00003D0600008D06000061050000C5050000BB
:102F10000000000000000000850500002D070000F3
:102F20009105000001060000000000000000000004
:102F3000DD0600000507000079050000ED05000032
:102F4000000000000000000065060000B50600005B
:102F50006D050000D9050000000000000000000021
:102F6000150600005105000055050000B1050000E0
:102F70004008FE4340A004404408FE4344A00440EF
:102F80000018FE4300C004403000FE43309004406F
:102F90003400FE43349004401C18FE431CC004401F
:102FA0001018FE4310C004400818FE4308C0044037
:102FB0000C18FE430CC004400C10FE430CB004403F
:102FC0001010FE4310B004401810FE4318B0044027
:102FD0001C10FE431CB004401410FE4314B0044007
:102FE0000418FE4304C004400010FE4300B0044037
:102FF0000008FE4300A004400408FE4304A004406F
:103000000C08FE430CA004400808FE4308A004403E
:103010001418FE4314C004401818FE4318C004409E
:103020000410FE4304B004400810FE4308B00440FE
:103030001400FE43149004404C08FE434CA004408E
:103040000420FE4304D004402410FE4324B0044076
:103050002010FE4320B004402810FE4328B0044056
:103060002C10FE432CB004400020FE4300D004404E
:103070004808FE4348A004401000FE43109004405E
:103080000000000000000000A1140000B9140000BE
:1030900089140000911400008D14000095140000A4
:1030A0004D1400005F1400007F1400008314000022
:1030B000991400009D1400001D1400002914000044
:1030C0003514000041140000C9140000AD140000C4
:1030D0000000000000000000851500009D150000A4
:1030E0006D150000751500007115000079150000C0
:1030F000311500004315000063150000671500003E
:103100007D15000081150000011500000D1500005F
:103110001915000025150000AD15000091150000DF
:103120000000000000000000691600008116000089
:103130005116000059160000551600005D160000DB
:103140001516000027160000471600004B16000059
:103150006116000065160000E5150000F11500007D
:10316000FD150000091600009116000075160000FC
:10317000001519150001000070E5FF1F1200000086
:10318000000200009AE5FF1F43000000000300005A
:10319000F4E5FF1F000000000103090482E5FF1FA2
:1031A0000000000002030904DEE5FF1F000000002C
:1031B00003030904F8E5FF1F000000000000000001
:1031C00000000000000000000000000000000000FF
:1031D0004124000047240000312400003524000071
:1031E000392400003D2400004300000010E6FF1FCA
:1031F000F8B500BFF8BC08BC9E467047492C0000DB
:1032000035040000E5040000E5140000C9150000C5
:08321000AD160000512400007E
:04321800F8B500BF46
:08321C0030F3FF7F0100000008
:1032240000000000FFFFFFFF0A0400006CF1FF1F15
:103234001201000202000040C016830400010102D2
:10324400030118035400650065006E0073007900E3
:103254006400750069006E006F00090243000201FA
:1032640000C032090400000102020100052400101C
:1032740001052401010104240206052406000107B6
:1032840005820310004009040100020A000000073F
:1032940005030240000007058402400000001603F5
:1032A400550053004200200053006500720069007D
:1032B40061006C00040309040C030000000000001A
:1032C40000000000000000000000000000000000FA
:1032D40000000000FCE8FF1F64E9FF1FCCE9FF1FAA
:1032E40000000000000000000000000000000000DA
:1032F40000000000000000000000000000000000CA
:1033040000000000E83100000000000000000000A0
:1033140000000000000000000000000000000000A9
:103324000000000000000000000000000000000099
:103334000000000000000000000000000000000089
:103344000000000000000000000000000000000079
:103354000000000000000000000000000000000069
:103364000000000000000000000000000000000059
:103374000000000000000000010000000000000048
:103384000E33CDAB34126DE6ECDE05000B0000000D
:103394000000000000000000000000000000000029
:1033A4000000000000000000000000000000000019
:1033B4000000000000000000000000000000000009
:1033C40000000000000000000000000000000000F9
:1036F400000000000000000010E6FF1F00000000B2
:10370400000000003CEAFF1F3CEAFF1F44EAFF1FE1
:1037140044EAFF1F4CEAFF1F4CEAFF1F54EAFF1F55
:1037240054EAFF1F5CEAFF1F5CEAFF1F64EAFF1F05
:1037340064EAFF1F6CEAFF1F6CEAFF1F74EAFF1FB5
:1037440074EAFF1F7CEAFF1F7CEAFF1F84EAFF1F65
:1037540084EAFF1F8CEAFF1F8CEAFF1F94EAFF1F15
:1037640094EAFF1F9CEAFF1F9CEAFF1FA4EAFF1FC5
:10377400A4EAFF1FACEAFF1FACEAFF1FB4EAFF1F75
:10378400B4EAFF1FBCEAFF1FBCEAFF1FC4EAFF1F25
:10379400C4EAFF1FCCEAFF1FCCEAFF1FD4EAFF1FD5
:1037A400D4EAFF1FDCEAFF1FDCEAFF1FE4EAFF1F85
:1037B400E4EAFF1FECEAFF1FECEAFF1FF4EAFF1F35
:1037C400F4EAFF1FFCEAFF1FFCEAFF1F04EBFF1FE4
:1037D40004EBFF1F0CEBFF1F0CEBFF1F14EBFF1F91
:1037E40014EBFF1F1CEBFF1F1CEBFF1F24EBFF1F41
:1037F40024EBFF1F2CEBFF1F2CEBFF1F34EBFF1FF1
:1038040034EBFF1F3CEBFF1F3CEBFF1F44EBFF1FA0
:1038140044EBFF1F4CEBFF1F4CEBFF1F54EBFF1F50
:1038240054EBFF1F5CEBFF1F5CEBFF1F64EBFF1F00
:1038340064EBFF1F6CEBFF1F6CEBFF1F74EBFF1FB0
:1038440074EBFF1F7CEBFF1F7CEBFF1F84EBFF1F60
:1038540084EBFF1F8CEBFF1F8CEBFF1F94EBFF1F10
:1038640094EBFF1F9CEBFF1F9CEBFF1FA4EBFF1FC0
:10387400A4EBFF1FACEBFF1FACEBFF1FB4EBFF1F70
:10388400B4EBFF1FBCEBFF1FBCEBFF1FC4EBFF1F20
:10389400C4EBFF1FCCEBFF1FCCEBFF1FD4EBFF1FD0
:1038A400D4EBFF1FDCEBFF1FDCEBFF1FE4EBFF1F80
:1038B400E4EBFF1FECEBFF1FECEBFF1FF4EBFF1F30
:1038C400F4EBFF1FFCEBFF1FFCEBFF1F04ECFF1FDF
:1038D40004ECFF1F0CECFF1F0CECFF1F14ECFF1F8C
:1038E40014ECFF1F1CECFF1F1CECFF1F24ECFF1F3C
:1038F40024ECFF1F2CECFF1F2CECFF1F34ECFF1FEC
:1039040034ECFF1F3CECFF1F3CECFF1F44ECFF1F9B
:1039140044ECFF1F4CECFF1F4CECFF1F54ECFF1F4B
:1039240054ECFF1F5CECFF1F5CECFF1F64ECFF1FFB
:1039340064ECFF1F6CECFF1F6CECFF1F74ECFF1FAB
:1039440074ECFF1F7CECFF1F7CECFF1F84ECFF1F5B
:1039540084ECFF1F8CECFF1F8CECFF1F94ECFF1F0B
:1039640094ECFF1F9CECFF1F9CECFF1FA4ECFF1FBB
:10397400A4ECFF1FACECFF1FACECFF1FB4ECFF1F6B
:10398400B4ECFF1FBCECFF1FBCECFF1FC4ECFF1F1B
:10399400C4ECFF1FCCECFF1FCCECFF1FD4ECFF1FCB
:1039A400D4ECFF1FDCECFF1FDCECFF1FE4ECFF1F7B
:1039B400E4ECFF1FECECFF1FECECFF1FF4ECFF1F2B
:1039C400F4ECFF1FFCECFF1FFCECFF1F04EDFF1FDA
:1039D40004EDFF1F0CEDFF1F0CEDFF1F14EDFF1F87
:1039E40014EDFF1F1CEDFF1F1CEDFF1F24EDFF1F37
:1039F40024EDFF1F2CEDFF1F2CEDFF1F34EDFF1FE7
:103A040034EDFF1F3CEDFF1F3CEDFF1F44EDFF1F96
:103A140044EDFF1F4CEDFF1F4CEDFF1F54EDFF1F46
:103A240054EDFF1F5CEDFF1F5CEDFF1F64EDFF1FF6
:103A340064EDFF1F6CEDFF1F6CEDFF1F74EDFF1FA6
:103A440074EDFF1F7CEDFF1F7CEDFF1F84EDFF1F56
:103A540084EDFF1F8CEDFF1F8CEDFF1F94EDFF1F06
:103A640094EDFF1F9CEDFF1F9CEDFF1FA4EDFF1FB6
:103A7400A4EDFF1FACEDFF1FACEDFF1FB4EDFF1F66
:103A8400B4EDFF1FBCEDFF1FBCEDFF1FC4EDFF1F16
:103A9400C4EDFF1FCCEDFF1FCCEDFF1FD4EDFF1FC6
:103AA400D4EDFF1FDCEDFF1FDCEDFF1FE4EDFF1F76
:103AB400E4EDFF1FECEDFF1FECEDFF1FF4EDFF1F26
:103AC400F4EDFF1FFCEDFF1FFCEDFF1F04EEFF1FD5
:103AD40004EEFF1F0CEEFF1F0CEEFF1F14EEFF1F82
:103AE40014EEFF1F1CEEFF1F1CEEFF1F24EEFF1F32
:103AF40024EEFF1F2CEEFF1F2CEEFF1F34EEFF1FE2
:0C3B040034EEFF1F00000200FFFFFFFF77
:00000001FF
