:1000000000200020F90000002D130000F91200006C
:10001000F9120000F9120000F9120000F9120000B4
:10002000F9120000F9120000F91200002D1300006F
:100030002D130000F91200002D130000E91200003A
:100040002D1300002D1300002D1300002D130000B0
:100050002D1300002D1300002D1300002D130000A0
:100060002D1300002D1300002D1300002D13000090
:100070002D1300002D1300002D1300002D13000080
:10008000B92700002D130000812B00002D13000064
:100090000D2F00002D1300002D1300002D13000064
:1000A0002D1300002D1300002D1300002D13000050
:1000B0002D1300002D1300002D1300002D13000040
:1000C0002D1300002D1300002D1300003117000028
:1000D0002D1300002D1300002D1300002D13000020
:1000E0002D1300002D1300002D1300002D13000010
:1000F0002D1300002D130000564B4CF2205210B56A
:100100001A804DF628121A8000BF00BF01F012F9C4
:10011000514B524A1A60524A5A60A3F53043283B69
:100120001A6812F4807204D14E490A604FF4A85242
:100130001A604D4B1A78110703D51A7842F008025D
:100140001A704A4B2A221A700023494A49499818C2
:10015000884204D24849595899500433F5E7474A30
:10016000474B9A424FF0000302D242F8043BF7E7B4
:100170004449454A595899500433F82BF8D1434B18
:10018000802103F8011B42498B42F9D1414B1A608F
:10019000414B0A221A70A3F6FF7324221A70A02280
:1001A00003F8012C3D4B1A789207FBD51A78D40638
:1001B000FCD41A7802F00C02082AFAD1384B032238
:1001C0001A7040225A70354B1A789006FBD51A786F
:1001D0005106FCD5334B344A1A6002225A60334B25
:1001E00020221A702D4B1B7803F00C030C2BF9D135
:1001F0002F4B304A1A60304B4BF67F321A60002288
:100200005A60072243F8042C2C4AC3F80C2D62B61E
:1002100001F07EF9134B1B68DA0705D5284801F079
:10022000EBF8284B284A1A60284B1B785B0609D547
:10023000244C254A2368934204D1214801F0DCF87C
:10024000002323600AF0AEFB01F07AF800F0AAFF69
:10025000FEE700BF0E20054038800440823F0400C6
:100260000100002B14D0034002D0074000E00740FB
:1002700060E5FF1F8CEEFF1F442E010090EEFF1F74
:1002800040FAFF1F0000000000E1FF1F00E400E053
:100290002EE400E008ED00E0005006400640064075
:1002A0000440064044800440000003110040064022
:1002B00004800440C010050014E000E0000020208D
:1002C000669D72561CE00340A5C3945A00F0074097
:1002D000FFFFFFFFFFFFFFFFFFFFFFFFFFFFFFFF2E
:1002E000FFFFFFFFFFFFFFFFFFFFFFFFFFFFFFFF1E
:1002F000FFFFFFFFFFFFFFFFFFFFFFFFFFFFFFFF0E
:10030000FFFFFFFFFFFFFFFFFFFFFFFFFFFFFFFFFD
:10031000FFFFFFFFFFFFFFFFFFFFFFFFFFFFFFFFED
:10032000FFFFFFFFFFFFFFFFFFFFFFFFFFFFFFFFDD
:10033000FFFFFFFFFFFFFFFFFFFFFFFFFFFFFFFFCD
:10034000FFFFFFFFFFFFFFFFFFFFFFFFFFFFFFFFBD
:10035000FFFFFFFFFFFFFFFFFFFFFFFFFFFFFFFFAD
:10036000FFFFFFFFFFFFFFFFFFFFFFFFFFFFFFFF9D
:10037000FFFFFFFFFFFFFFFFFFFFFFFFFFFFFFFF8D
:10038000FFFFFFFFFFFFFFFFFFFFFFFFFFFFFFFF7D
:10039000FFFFFFFFFFFFFFFFFFFFFFFFFFFFFFFF6D
:1003A000FFFFFFFFFFFFFFFFFFFFFFFFFFFFFFFF5D
:1003B000FFFFFFFFFFFFFFFFFFFFFFFFFFFFFFFF4D
:1003C000FFFFFFFFFFFFFFFFFFFFFFFFFFFFFFFF3D
:1003D000FFFFFFFFFFFFFFFFFFFFFFFFFFFFFFFF2D
:1003E000FFFFFFFFFFFFFFFFFFFFFFFFFFFFFFFF1D
:1003F000FFFFFFFFFFFFFFFFFFFFFFFFFFFFFFFF0D
:10040000FFFFFFFFFFFFFFFFFFFFFFFFFEFFFFFFFD
:1004100010B5054C237833B9044B13B10448AFF33E
:1004200000800123237010BD90EEFF1F000000002C
:10043000AC2A010008B5064B1BB106480649AFF3CC
:1004400000800648036813B1054B03B1984708BD07
:1004500000000000AC2A010094EEFF1F8CEEFF1F8D
:100460000000000038B5044608460D460BF01AFCA3
:10047000236802465B6820462946984738BD38B550
:10048000044600F087FE0546204600F03BFE284467
:1004900038BD4FF0FF3070474FF0FF3070474FF0DE
:1004A000FF30704708B50D20012100F0E3FF02483E
:1004B000BDE8084000F01EBAB4EEFF1F30B52B4D6A
:1004C0002B4885B0294600F0B9FBAA69AB689A426F
:1004D00036D00D20012100F09FFF31E010685168F7
:1004E00001AB03C301A812891A80012100F0BDFDF0
:1004F0000128044603D10D20214600F08DFF1D493F
:100500001D48FFF7AFFF21461B48184CFFF7B7FF08
:100510001A491948FFF7A6FF01A800F09AFD014605
:100520001548FFF7ACFF2B69A8680A3B98420CD02E
:1005300000F0ADFDA3680A33A36001A800F0A7FD99
:10054000AA68AB699342C9D10DE000F0A0FDE06854
:1005500000F032FF63691A1D62615B68E36003F5B6
:10056000FF722261E8E705B030BD00BFF0EEFF1F6B
:10057000B4EEFF1F3409010000F0FF1F5409010011
:10058000036870B504464569466A53B10436B542FE
:1005900004D255F8040B00F00FFFF8E7206800F0D4
:1005A0000BFF204670BD10B50446FFF7E9FF20465B
:1005B00010BD2DE9F04704463320B1FBF0F0461C96
:1005C0000330082838BF0820606080000D4600F026
:1005D000F1FE636820609B1B4FEA530A00EB8A0818
:1005E000074608EB8606C146B14506D24FF4FF70B8
:1005F00000F0E0FE49F8040BF6E7C4F8148057F861
:100600002A20E26002F5FF732361331F636256F80C
:10061000043CA26003F5FF7133222162B5FBF2F1C5
:1006200002FB11550A22E36102FB0533A361BDE819
:10063000F0872DE9F04704462A20B1FBF0F0461C74
:100640000330082838BF0820606080000D4600F0A5
:10065000B1FE636820609B1B4FEA530A00EB8A08D7
:10066000074608EB8606C146B14506D24FF4FC703A
:1006700000F0A0FE49F8040BF6E7C4F8148057F820
:100680002A20E26002F5FC732361331F636256F88F
:10069000043CA26003F5FC712A222162B5FBF2F151
:1006A00002FB11550C22E36102FB0533A361BDE897
:1006B000F0872DE9F04190E800118768C6680C4684
:1006C00005460FC985E80F0084E80011A760E660C1
:1006D000BDE8F0812DE9F04190E800118768C66817
:1006E0000C4605460FC985E80F0084E80011A76095
:1006F000E660BDE8F08138B504460D46AC4204D052
:10070000204600F0C4FC0A34F8E738BD2DE9F84F64
:10071000D0F814908768D0F810B08669D0F81CA083
:10072000D0F82480044609F10405454506D255F861
:10073000040B00F5FF71FFF7DEFFF6E7C145384611
:1007400003D05946FFF7D7FF50463146FFF7D3FF96
:10075000236863B1636A65691E1DB54204D255F80A
:10076000040B00F029FEF8E7206800F025FE204683
:10077000BDE8F88F10B50446FFF7C8FF204610BD4E
:1007800030B54548454D00248BB002F04DFC68461D
:1007900021460094019402940394049405940694D1
:1007A000079408940994FFF704FF2C606C60AC6018
:1007B000EC602C616C61AC61EC612C626C6228466F
:1007C0002146FFF7F6FE009B8BB105F1080002A958
:1007D000FFF76FFF05F1180006A9FFF76AFF2A6807
:1007E000009B2B600092019B6A6801926B606846D7
:1007F00000242B4DFFF78AFF2A4A2B49274803F094
:10080000B7F8684621460094019402940394049436
:1008100005940694079408940994FFF70AFF2C6046
:100820006C60AC60EC602C616C61AC61EC612C6262
:100830006C6228462146FFF7FCFE009B8BB105F158
:10084000080002A9FFF746FF05F1180006A9FFF707
:1008500041FF2A68009B2B600092019B6A6801920D
:100860006B606846FFF78CFE10490E4A0C4803F097
:100870007FF80F4800F024F80E490A4A0C4803F0AC
:1008800077F80D4800F0B2FA0C49064A0A4803F01E
:100890006FF80BB030BD00BFACEEFF1FF0EEFF1FD6
:1008A000C8EEFF1F60E5FF1F75070000A7050000E9
:1008B000B4EEFF1F31090000C4EEFF1F050E00005B
:1008C000F7B5054600242B1900221A7308200AF0F8
:1008D00091F845F824000646684602F0A5FB9DE81D
:1008E00003000134032C86E80300ECD1284603B052
:1008F000F0BDFFFFF0B50D4B064693E8070085B04D
:1009000001AD85E8070000242F590221F8B200F05C
:10091000B1FD30590A2102F0A5FB305939460434A3
:1009200002F08AFB0C2CEFD105B0F0BD7C09010070
:1009300010B50446006800F03FFD606800F03CFD23
:10094000A06800F039FD204610BD30B50023C41862
:1009500012B1247BCC5401E0CD5C25730133032B11
:10096000F5D130BD2DE9F04190E84800F61AF610B7
:1009700014BF334601239B1904460F4690466FF07F
:10098000604603D2B34238BF1E4626B1F00000F0E5
:1009900011FD054600E0354660682368396898F81F
:1009A0000020C01A20F00700281801D000F0FCF940
:1009B00094E88400002399188F4209D015EB030CAA
:1009C00018BF03C903F1080318BF8CE80300F2E75E
:1009D000BF1A27F007072F44083712B1104600F05E
:1009E000EBFC84E8A00005EBC605A560BDE8F0813E
:1009F00082B0F0B504460693481E0223914290FB54
:100A0000F3F34FEAC1000FDD04EBC3059DF81C7042
:100A10002E794FB9012E07D02E682650211828793B
:100A20000871581E1946E8E705AB221853F8040F61
:100A300044F83100BDE8F0401B79137102B07047F3
:100A400082B0F7B5571E099302230C4697FBF3F7C4
:100A5000B9421BDA4E1C73005D1E00EBC50E00EBA5
:100A600006169EF804E03679BEF1000F02D1012E81
:100A700018BF2B4600EBC30500EBC106D5F800E01C
:100A800040F831E0297931711946E1E7D3070D4685
:100A900010D4023A022392FBF3F291420AD14900A8
:100AA000013100EBC10300EBC5021E6840F8356060
:100AB0001B7913714FF000038DF804300A9B0093EB
:100AC0002246099BFFF794FF03B0BDE8F04002B057
:100AD0007047F0B543688568AB4285B0044609D0DD
:100AE0000968127813B1184600F05EF9636808339C
:100AF000636001E0FFF736FF94E80C0013E90300A0
:100B000004AC04E903009B1A03980090D9104FF03D
:100B100000038DF804301046029B01390022FFF7D4
:100B200067FF05B0F0BD091A38B58C1005461346AD
:100B30004FEA840405D01046294622460AF082FA7C
:100B40000346181938BD2DE9F84F88461746416A03
:100B5000026843680446881AA3EBA000012856D80F
:100B60006669C6EB01094FEAA90909F1010909F112
:100B7000010AB3EB4A0F18D9CAEB03056D0802EB63
:100B80008505B54201F1040104D230462A46FFF73B
:100B9000CAFF2AE0891B891027D08A0005EB89004B
:100BA000801A31460AF04EFA1FE0002B14BF1A4695
:100BB000012202339E18B6F1804F01D302F0DEFE0F
:100BC000B00000F0F7FBCAEB0605616A6D0800EBA8
:100BD0008505834604312A466069FFF7A4FF206833
:100BE00000F0EAFBC4F800B0666065612B68E36062
:100BF00003F5FF73236109F18043013B05EB830299
:100C0000626255F82330E36103F5FF7323624FF40A
:100C1000FF70656A00F0CEFB6860A06918B14146BC
:100C20003A4600F041FA636A1A1D62625B68E3614A
:100C300003F5FF722262A361BDE8F88F2DE9F04150
:100C40008AB0002304460D46069307930893039346
:100C5000039B022B00F3938054F8230002F004FA64
:100C6000002800F08980039B54F8230002F02AFA40
:100C700004AF50B9012306A803A93A468DF81030F5
:100C8000FFF727FF4148424909E0002306A803A9CE
:100C90003A468DF81030FFF71CFF3C483D49FFF7FE
:100CA000E1FB3A480399FFF7EAFB069B079A934258
:100CB00062D0394935481E6893F80480FFF7D2FBAB
:100CC000324800F01FFA0122204602A9FFF73DFE3C
:100CD0000AAB1E44314906F8208C2C4804F10C065E
:100CE000FFF7C0FB304600F063F82D492748FFF7B7
:100CF000B9FB02A800F05CF82B6AA8690A3B98428D
:100D000008D018B1314602AA00F0CEF9AB690A3317
:100D1000AB6104E02846314602AAFFF714FF002227
:100D2000204602A9FFF711FE1E491848FFF79AFB5B
:100D3000304600F03DF8069E079B9A1B0F2A17DDF0
:100D4000A3F1080292E8030087E80300316843F842
:100D5000081C337913714FF00003921B8DF8043097
:100D6000059B00933046049B0021D210FFF768FEDC
:100D7000079B083B079398E7039B013367E70698B7
:100D800008B100F019FB0AB0BDE8F08100F0FF1FC8
:100D900088090100AA090100CD090100FD0901002F
:100DA000220A0100470A0100016002717047FFFF3B
:100DB00037B50023C25C01AC012A0CBF31223022BE
:100DC000E2540133032BF5D1074D20460AF06AFFA8
:100DD0002B6802465B68214628469847284600F063
:100DE00091F903B030BD00BF00F0FF1F10B50446FD
:100DF000042000F0DFFA024B03602060204610BDA3
:100E0000F80A0100704708B5036801601BB11A6851
:100E10001846D268904708BD70477047014B036081
:100E2000704700BF800A01007047FFFF014B03605D
:100E3000704700BF800A0100014B0360704700BF8C
:100E4000800A0100014B0360704700BF800A010067
:100E5000014B0360704700BF800A010001215A6006
:100E6000002219701A727047014B0360704700BF6F
:100E7000800A010010B5034B0360044600F09CFAA1
:100E8000204610BD800A010010B5034B03600446E4
:100E900000F092FA204610BD800A010010B5034B05
:100EA0000360044600F088FA204610BD800A010065
:100EB00010B5034B0360044600F07EFA204610BDD7
:100EC000800A010010B5034B0360044600F074FA79
:100ED000204610BD800A010010B5034B0360044694
:100EE00000F06AFA204610BD800A010010B55A6071
:100EF0000C460022012119701A72042000F05AFADF
:100F0000034A026001462046BDE81040FFF77BBF60
:100F1000980A010038B501245A601C701C72042024
:100F20000D4600F047FA044A026001462846BDE833
:100F30003840FFF768BF00BFC80A010038B5012478
:100F40005A601C701C7204200D4600F033FA044AEB
:100F5000026001462846BDE83840FFF754BF00BF95
:100F6000C80A010010B55A600C4601220021197010
:100F70001A72042000F01EFA034A0260014620465D
:100F8000BDE81040FFF73FBFF80A010038B5002464
:100F90005A601C701C7204200D4600F00BFA044AC3
:100FA000026001462846BDE83840FFF72CBF00BF6D
:100FB000F80A010010B55A600C4600220121197090
:100FC0001A72042000F0F6F9034A02600146204636
:100FD000BDE81040FFF717BFB00A010010B55A6016
:100FE0000C460122002119701A72042000F0E2F967
:100FF000034A026001462046BDE81040FFF703BFE8
:10100000E00A010038B500241C705A601C721046BA
:101010000D4600F01EF801280ADC042000F0CAF991
:10102000044A026001462846BDE83840FFF7EBBE9F
:1010300038BD00BFF80A010038B5044608460D4621
:101040000AF030FE236802465B682046294698472E
:1010500038BD00231A46C1180133C979012908BFD8
:101060000132032BF7D11046704710B500231A4602
:10107000C418E479012C02D10132914205D0013328
:10108000032BF5D14FF0FF3010BD184610BD70474F
:101090000023C218517809B9117909B10121D17120
:1010A0000133032BF5D1704738B504460023E0180F
:1010B000CD5C4570D55C05710133032BF7D120461B
:1010C000FFF7E6FF0B490C48FFF7B6FF601CFFF780
:1010D0006FFE0A490848FFF7AFFF201DFFF768FEC3
:1010E00007490548FFF7A8FFE01DFFF761FE20460E
:1010F00038BD00BF080B010000F0FF1F2A0B0100E4
:101100004C0B010007B5064B1B88ADF80430036893
:1011100001A95B680222984703B05DF804FB00BF99
:10112000740B010070B505468AB022B90368C9B2D4
:101130001B6898472CE0012A08BF0A2221B93022F7
:101140008DF82520212413E02124B1FBF2F002FBCD
:101150001011C9B209290AAE94BF30313731264483
:10116000C9B206F8241C014610B1013CE4B2ECE718
:1011700033B1013CE4B20AAB23442D2203F8242C02
:101180002B6801A95B6828462144C4F122029847D4
:101190000AB070BD0029BABF49422D2300230A229C
:1011A000FFF7C0BF08B5FFF77DF9FFF787F900F03B
:1011B00067FFFAE7844641EA000313F003036DD1A9
:1011C000403A41D351F8043B40F8043B51F8043B0A
:1011D00040F8043B51F8043B40F8043B51F8043B11
:1011E00040F8043B51F8043B40F8043B51F8043B01
:1011F00040F8043B51F8043B40F8043B51F8043BF1
:1012000040F8043B51F8043B40F8043B51F8043BE0
:1012100040F8043B51F8043B40F8043B51F8043BD0
:1012200040F8043B51F8043B40F8043B51F8043BC0
:1012300040F8043B51F8043B40F8043B51F8043BB0
:1012400040F8043B403ABDD2303211D351F8043B50
:1012500040F8043B51F8043B40F8043B51F8043B90
:1012600040F8043B51F8043B40F8043B103AEDD2FF
:101270000C3205D351F8043B40F8043B043AF9D250
:10128000043208D0D2071CBF11F8013B00F8013B23
:1012900001D30B8803806046704700BF082A13D330
:1012A0008B078DD010F003038AD0C3F10403D21A48
:1012B000DB071CBF11F8013B00F8013B80D331F87C
:1012C000023B20F8023B7BE7043AD9D3013A11F8FC
:1012D000013B00F8013BF9D20B7803704B78437067
:1012E0008B78837060467047024B1A6801321A602F
:1012F000704700BF18EFFF1F08B50B4C2368580359
:1013000001D500F015FA2368590501D501F054FA0A
:1013100023681A0501D501F033FC2368DB04ECD502
:1013200001F0F4FDE9E700BF3480044008B5FFF7A1
:10133000E3FFFFFF014B10221A8070470020054099
:101340007047FFFF024A1368184410601846704740
:1013500064E5FF1F002070474FF0FF3070474FF4E7
:1013600000534B6000207047012070474FF0FF3062
:101370007047FEE7FEE7FFFFEFF313839BB9EFF340
:10138000108098B9EFF3058323B10F2B04D9084AD5
:10139000985C01E04FF48070EFF311833BB183421E
:1013A00038BF184670474FF0FF30704718467047F7
:1013B000F0E300E009F01EBB09F024BB10B50023E8
:1013C000B0FBF2F402FB1400092894BF3030373030
:1013D000C0B2C85420460CB10133F1E7CA185470AA
:1013E00022469A4206DA885CCC5C8C54C85401329E
:1013F000013BF6E7084610BD044B054900221A6080
:101400000A60044A106010221A60704714D003402A
:1014100004D0034000D00340212810B518D80D4A4D
:1014200052F8303093F880423CB1012211B183F878
:10143000802010BD83F8002110BD02EBC00043687E
:101440001A6811B142F0030201E022F002021A60B0
:1014500010BD00BF780B0100212806D8044B53F8BB
:10146000303093F80002C0B270470020704700BFD0
:10147000780B0100212816D80B4A02EBC003012982
:101480005B6852F8302004D182F880124FF4A272C7
:1014900008E0002082F8800211B94FF4807201E068
:1014A00040F203121A607047780B010072B60B4BC2
:1014B0000B491A680B4B1B68096862B6490102D5D3
:1014C000322A88BF0133C2F53B4230217F32B2FB62
:1014D000F1F24FF47A7000FB0320704718E000E04F
:1014E00004ED00E018EFFF1F38B50446FFF7DEFFFC
:1014F000054664B1FFF7DAFF401BB0F57A7F03D3EE
:10150000013C04D005F57A7500F0BAFDF2E738BD6C
:101510001B4B4FF4807210B51A604FF400721A60C2
:101520004FF480621A604FF400621A604FF48052E8
:101530001A60144B144A154C00204BF6FF711860CA
:10154000596028231360936013619361136293625F
:10155000136393630922226004F5805404342060ED
:101560000B4801600B490B608B600B4B1A6000F05D
:10157000FDFE0420FFF7B8FFBDE8104000F0CEBB31
:1015800004E100E0048003400C800340008003403D
:10159000089003400C90034000900340F0B50C4BC2
:1015A0000C4C1A7842F0020504EBC50682F00102E9
:1015B000706009481A700678002E0CBF8827C8276B
:1015C00086F0010647EA0141067044F83510F0BD87
:1015D00084EFFF1F00E0FF1FFCEFFF1F431E032BE4
:1015E00010B510D872B6094A52F8230048B14168C4
:1015F00042F82310064A018832F81340611A22F893
:10160000131062B610BD002010BD00BF74EFFF1FA5
:101610002CFAFF1F013803280AD872B6054B53F87D
:101620002030002013B101305B68FBE762B67047E1
:1016300000207047C8EFFF1F10B572B60123174A8C
:101640001A4412F8012C12071CD59900144A52F8BA
:1016500031402CB902EB431308305860114B09E0BC
:1016600041F0010152F8314064B902EBC103083086
:1016700058600D4B42F831300C4B1A78013A1A7011
:1016800062B610BD0133052BD9D162B6074B0022DB
:101690001A70BDE8104000F0BBBB00BF980D010000
:1016A00000E0FF1F88004000C8004000F2EFFF1F6D
:1016B000431E032B30B532D8194A400140F01000C8
:1016C000104472B6174CE25C032A09D8DFE802F036
:1016D000160218050830022213E00830042210E038
:1016E0001148124A50F8234014B940F8231002E080
:1016F00052F82300416042F823100FE0032200E07B
:101700000522E25410F0080F01F108030A88436033
:101710000CBF8823C82343EA0243036062B630BD8E
:1017200000E0FF1F30EFFF1FC8EFFF1FD8EFFF1FC4
:101730002DE9F84FAB4F3C78E4B214F0040F3D466E
:1017400019D0A94B1B78A3B1A84A117801F0FF0367
:1017500021B1013BDBB2137003B900BEA44A11787A
:1017600001F0FF0329B1013BDBB213700BB900F0AC
:1017700063FC04233B7004F0080303F0FF02002B1A
:1017800000F063829B4B9C4C1A78D2B215094FEA49
:10179000920840F0E08104EBC803596854F83830EF
:1017A000C3F38303013B0C2B00F2D281DFE813F07B
:1017B00091019101D001D001D001D001D001D0011F
:1017C000AC01D001D001D0010D008C4D0A684B68EE
:1017D0008B486B6001218B4B44F838302A60DFF86E
:1017E0005082017092B240F2816000238242C8F8B8
:1017F00000302361A36117D8B2F5D06F80F01E814D
:10180000B2F5817F00F0CF8006D8802A00F0BA8040
:10181000822A00F0BB802DE140F202339A4200F0B0
:10182000D180B2F5A06F1CE042F22100824200F0AC
:101830004D810ED8B2F5086F00F09E80B2F5106FA2
:1018400040F01881684B6C4EAA781A7006F1800936
:101850000AE042F221218A4200F0088142F221335B
:101860009A4200F00B8105E1336A1B0603D5706ACA
:10187000083800F0CDFA08364E45F5D10026B146BD
:10188000DFF8B0A156F80A0028B1D0F804B000F093
:10189000BFFA5846F8E74AF806005B4BDFF898A114
:1018A000F05056F80A0028B1D0F804B000F0B0FAB1
:1018B0005846F8E7554B4AF80600F050544B23F8C9
:1018C0001900544B19F80320023A032A08D8DFE81C
:1018D00002F002040204002200E0012203F80920C1
:1018E00009F10109B9F1040F06F10406C8D14A4B08
:1018F00000221A7001269A46484A494B3244334422
:1019000012F8012C9B0012F0080F1A704FEA86099A
:1019100025D000F05FFA38B104EB46130830586068
:10192000404B44F8393006E09AF8003044F839006A
:1019300001338AF8003000F04DFA49F0010338B164
:1019400004EBC302083050602E4A44F8332006E00E
:1019500044F833009AF8003001338AF8003049F037
:101960000202013649F003090023052E44F8323003
:1019700044F83930C0D182E01B4B2B4C1B782370CC
:101980000B467FE0284C237063707AE0AA88042A13
:1019900070D8254C920023706370244B9B5C9E078B
:1019A0006FD521706DE0AA8802F07F03042B61DC03
:1019B0006B88002B5ED191001C4A0A44117821F0FB
:1019C000020155E0AA8802F07F03042B52DC6B88E9
:1019D000002B4FD19100154A0A44117841F00201C1
:1019E00046E000BF80200740FBEFFF1F85EFFF1F91
:1019F00010F0FF1F9020074000E0FF1FE8EFFF1FDF
:101A0000FCEFFF1FC800400020EFFF1FD8EFFF1FB3
:101A10002CFAFF1F30EFFF1FF2EFFF1F980D0100A0
:101A200030C8011088004000F3EFFF1FC0200740BE
:101A30001CEFFF1F74EFFF1FC8EFFF1F6A88A98804
:101A40009D4B53F8084CA3F10C009CB133F80C6C7F
:101A5000964209D133F80A6C8E4205D1120A032A44
:101A60000CBF237803890DE00C33EAE7A978934A89
:101A7000117004E0924B0F221A7027E000231C46DD
:101A800000E00223EE88B34238BF1E46402E34BF2A
:101A90003546402520462946FFF780FD761B2C441D
:101AA00003D1402D12D1354603E0402E34BF3546D8
:101AB000402520462946FFF771FD761B2C4401D1B5
:101AC000402D03D17F4AC8F80040168001227E4B8A
:101AD0003DE07E4B1A8842F221039A4210D1002346
:101AE0007B4AC85C98540133072BF9D11368862BC5
:101AF00002D1784B0F221A7000200146FFF74EFDED
:101B0000754B44F8383023E0744E3568B5B1DFF8D2
:101B1000B481B8F80090B9F1400F34BF4C4640246E
:101B200028462146FFF73AFDC4EB09039BB2A8F80B
:101B300000300BB9402C00D12B193360634B1A884D
:101B4000B2F5A06F04D100225A709A78644B1A70D3
:101B500001225D4B6CE004EBC806013D736802F0A6
:101B60000802A3F10800EDB202F0FF01002A36D00E
:101B700000F04EF95B485C4B50F82520EAB1516803
:101B800040F8251002F108017160595D03290BD856
:101B9000DFE801F002040608032104E0022102E06C
:101BA000052100E00421595516F0080F12880CBFDA
:101BB0008823C82343EA024342E05A5D032A07D838
:101BC000DFE802F040400204002206E0012204E0C7
:101BD00016F0080F0CBF022203225A5532E054F8C7
:101BE0003820120C23F8082C22B3DFF82CE123F85C
:101BF000061C43F8041C5EF825303C4913B94EF826
:101C0000250002E051F825305860394B41F8250095
:101C100033F815100A4423F8152000F0DBF810B152
:101C20000830706006E0334B44F838001A7801320F
:101C30001A7007E0284B304A16F0080F08BF134609
:101C400044F8383008233B7074E5E0071FD51E497F
:101C500029482A4C02230B70294B1A70294B186013
:101C600098602948D8601A619A615C60144B0D2015
:101C700018702648FF2303702B700274244A1370D7
:101C8000244B9F221A7001230B70BDE8F88F2106A8
:101C900004D50B4B0D221A7080232B70A20705D59B
:101CA0001A4B1A78D2B21A7002232B70E30644BF83
:101CB00010232B70BDE8F88FA80D010020F0FF1F46
:101CC000C0200740F0EFFF1F94200740E8EFFF1F00
:101CD00034FAFF1F85EFFF1FC80040001CEFFF1FF5
:101CE00098200740C8EFFF1F30EFFF1F20EFFF1FB6
:101CF0002CFAFF1FF2EFFF1F8800400034EFFF1F98
:101D000084EFFF1F00E0FF1F88EFFF1F88200740C0
:101D10008C2007408420074074EFFF1F08B501F0B6
:101D20004BF90022184B0021D15098180832882A0C
:101D30004160F7D1154A106840F48020106002F528
:101D400028326832C3F307201070C3F307401B0E1C
:101D500010751376FF2302F81C3C02F8143C02F8BD
:101D60008C3C012302F8083C82F8641002F8183C0D
:101D7000074B70221A70A3F21F3308221A60054B1A
:101D800010221A7008BD00BF00E0FF1F348004401D
:101D900023E400E00821074000F09EB800F05AB8A4
:101DA00000F07EB800F01AB9084600F00BB90846FA
:101DB000114600F09FB87047044B00221A714FF48F
:101DC0007A711A73024A99601A60704700F0FF1F17
:101DD000900C010072B60C4A1168B1FA81F30B2B1A
:101DE00002D962B6002070474FF00040D84021EA87
:101DF0000001116062B6054948225343C818002209
:101E0000CA504260704700BF68E5FF1F00E2FF1F35
:101E10000C4B4822C31AB3FBF2F30B2B11D80A4A1E
:101E2000127822B1094A12780AB1FFF705BC72B6DE
:101E3000074A4FF0004121FA03F31168194311607A
:101E400062B6704700E2FF1FF2EFFF1FFBEFFF1FBC
:101E500068E5FF1F10B5104C23686BB120684288FD
:101E6000531C0244147A0288934212D3FFF7D0FF26
:101E7000094B00221A600DE0084B1B7813B94FF094
:101E8000FF3010BD0320FFF7A9FB20600028E5D13B
:101E9000F5E74380204610BD1CF0FF1FFBEFFF1F3E
:101EA00010B50B4C236813B123686BB902E0094BE2
:101EB0001B7813B94FF0FF3010BD0320FFF78EFBE6
:101EC00020600028F0D1F5E75A881344187A10BD35
:101ED0001CF0FF1FFBEFFF1F044B9888044B1B688F
:101EE0001BB11A885B88D31A184470472CFAFF1F5D
:101EF0001CF0FF1F2DE9F8432D4E012307460C4629
:101F00003370002C4FD02B4D2B68A9462BBB47F2CA
:101F10000958294B1B7803F0FF020BB9327015E00A
:101F20000420FFF777FB072808D801233370FFF759
:101F300051FFC9F8000080B91D4B1870B8F10108B5
:101F40001E4B01D01A782AB101221A704FF0FF30CF
:101F5000BDE8F88300F094F8DBE72968174A488861
:101F600000231370C0F14002944238BF224600F1B2
:101F7000080C10448C444880A41A934204D0F85CA6
:101F80000CF803000133F8E71F444B883F2B06D9B8
:101F900040230B800420FFF78BFB00232B60084BB2
:101FA00005221A70ADE734702046BDE8F88300BF03
:101FB00011F0FF1F14F0FF1FFBEFFF1F18F0FF1FB2
:101FC00010F0FF1F07B502AB012103F8010D184601
:101FD000FFF790FF03B05DF804FBFFFF2DE9F04130
:101FE000114B1B78F3B1114E114B3468114D012781
:101FF0001F7098464CB1002763882F7004202380FF
:102000002146FFF755FB376009E0FFF7E3FE014685
:1020100020B104202C70FFF74BFB00E02F70002351
:1020200088F80030BDE8F081FBEFFF1F14F0FF1FC0
:1020300011F0FF1F10F0FF1F38B50E4B1B7803F097
:10204000FF05ABB90C4C216831B14B880B800420E3
:10205000FFF72EFB256038BDFFF7BCFE014620B11F
:102060000420BDE83840FFF723BB044B01221A705F
:1020700038BD00BF11F0FF1F14F0FF1F10F0FF1F4D
:1020800010B50E4C2378BBB901232370FFF724FF52
:1020900008B1FFF790FE00F02FFB08B100F072F8D6
:1020A00000F022FD08B100F0DFF800F0E3FE08B117
:1020B00000F04CF90023237010BD00BF21F0FF1F7A
:1020C00008B50368C9B21B68984708BD08B503681E
:1020D000C9B21B68984708BD08B50368C9B21B6838
:1020E000984708BD08B50368C9B21B68984708BD82
:1020F0004B0803F1B76000F55840B0FBF1F000F079
:102100007FB910B54B0803F1B76000F5584014468D
:10211000B0FBF1F000F074F92046BDE8104000F08B
:10212000B5B900F0DDB9084600F006BA00F0E4BA2F
:1021300000F00CBB00F0F0BA00F0C2BA00F01EBB19
:1021400000F0C8BA08B5084600F012FA012008BD30
:1021500008B5084600F00CFA012008BD10B5084685
:102160001446114600F04EFA204610BD38B5084618
:102170000D4609F097FD04462146284600F042FA34
:10218000204638BD7047FFFF044B00221A714FF400
:102190007A711A73024A99601A60704724F0FF1F1F
:1021A000B00C010008B50368C9B21B68984708BDA8
:1021B00008B50368C9B21B68984708BD08B503682D
:1021C000C9B21B68984708BD08B50368C9B21B6847
:1021D000984708BD4B0803F1B76000F55840B0FBC5
:1021E000F1F000F05DBB10B54B0803F1B76000F5EE
:1021F00058401446B0FBF1F000F052FB2046BDE819
:10220000104000F08DBB00F0B5BB084600F0DEBB0F
:1022100000F06ABC00F092BC00F076BC00F048BC54
:1022200000F0A4BC00F04EBC08B5084600F0EAFB84
:10223000012008BD08B5084600F0E4FB012008BDF8
:1022400010B508461446114600F026FC204610BD85
:1022500038B508460D4609F025FD044621462846B6
:1022600000F01AFC204638BD7047FFFF044B0022E7
:102270001A714FF47A711A73024A99601A607047A2
:1022800034F0FF1F000D010008B50368C9B21B68D8
:10229000984708BD08B50368C9B21B68984708BDD0
:1022A00008B50368C9B21B68984708BD08B503683C
:1022B000C9B21B68984708BD4B0803F1B76000F529
:1022C0005840B0FBF1F000F0B1BC10B54B0803F181
:1022D000B76000F558401446B0FBF1F000F0A6FCE2
:1022E0002046BDE8104000F0E1BC00F009BD084602
:1022F00000F032BD00F0BEBD00F0E6BD00F0CABD8A
:1023000000F09CBD00F0F8BD00F0A2BD08B5084685
:1023100000F03EFD012008BD08B5084600F038FD7C
:10232000012008BD10B508461446114600F07AFD9C
:10233000204610BD38B508460D4609F0B3FC0446EA
:102340002146284600F06EFD204638BD7047FFFF4D
:10235000044B00221A714FF47A711A73024A996081
:102360001A60704744F0FF1F500D01001B4B6022A4
:102370001A70E1225A701A4B1A4A19781A4B082916
:1023800001D1012102E00A2903D139211160132270
:1023900005E00C290CBF35213D21116012221A6085
:1023A000124B1A78124B02B101221A60114B1A78A3
:1023B000114B012A01D880220BE0042A01D8842283
:1023C00007E0082A01D8852203E0102A94BF86225C
:1023D00087221A60094B01221A707047004007409B
:1023E0006CE5FF1F08B003400CB0034055F0FF1F21
:1023F00020B003406DE5FF1F24B0034054F0FF1FE1
:10240000194B1A6842F480621A60184A002313704C
:10241000174A1370174A1370174A1370174A13702C
:10242000174B40F213321A604FF451725A60154B39
:10243000C0F344321A70C0F347125A7000F01F0004
:102440000422022198729A70D9745A7588221A74DB
:102450003C22DA700C4B40221A70A3F544734FF4FF
:1024600080321A60704700BF34800440D8F0FF1FEC
:1024700057F0FF1FE0F0FF1FD9F0FF1F56F0FF1FBE
:1024800040A0044000A0064010E400E0134A937806
:1024900000F0030103F0EC030B43410748BF43F096
:1024A0001003937000F00F03042B0C4903D18B79B8
:1024B00043F040038B715379C20603F0EF03074AE0
:1024C00048BF43F0100353719379810603F0EF0383
:1024D00048BF43F010039371704700BF00A006404F
:1024E00008B50E4B1B685B0500D408BD0C4B1A7871
:1024F00002F0FF0312B1FFF7C3FDF7E7094A4FF4FB
:1025000080311160084A0949D37040F203120A6011
:102510004A60074A1370074A137008BD34800440AC
:1025200056F0FF1F80E100E000A0064040A00440FC
:10253000D8F0FF1F57F0FF1F38B50446094B1B7832
:1025400003F0FF05002BF9D120460121FEF792FF91
:1025500020462946FEF760FF034B53F83420034B17
:102560001A6038BD56F0FF1F780B0100DCF0FF1F2A
:10257000F8B51D4B1B685A05064633D51B4B1B6827
:102580000BB101221A701A4B1C780134402C1F46E3
:1025900028BF0024174D2B78A34218D1FEF7ECFE7C
:1025A00040280FDC144A13791B06F3D52B78134906
:1025B0000133402B28BF0023C95CDBB2C9B2D17103
:1025C0002B70E7E7FF28E5DDFFF75AFDE2E70B4B4D
:1025D000F6B21E550A4B01221A70074BE4B2BC2218
:1025E0003C70DA70F8BD00BF34800440DCF0FF1F9F
:1025F000E0F0FF1FD9F0FF1F00A0064058F0FF1FBA
:1026000056F0FF1F274B1B685A052DE9F047074678
:102610008A4644D5244B1B680BB101221A703D46F3
:1026200007EB0A039D4237D2DFF890801F4E98F8DF
:10263000004096F800900134402C28BF00245FFA37
:1026400089F9A1451DD11A4BBC22DA70FEF794FE20
:1026500040280FDC164A13791B060FD5337815492D
:102660000133402B28BF0023C95CDBB2C9B2D17152
:10267000337003E0FF2801DDFFF702FD33784B459F
:10268000E4D00C4B15F8012B1A550B4B0122E4B288
:102690001A7088F80040C3E7054BBC22DA70BDE829
:1026A000F08700BF34800440DCF0FF1FD9F0FF1F2B
:1026B00000A0064058F0FF1F56F0FF1FE0F0FF1F7C
:1026C00008B5034B1B7813B1FFF7DAFCF9E708BD37
:1026D00056F0FF1F064A074B1B781078DBB2C0B2DA
:1026E00083422CBF3F3000F1FF30C01A704700BF5B
:1026F000D9F0FF1FE0F0FF1F054B1878054B1B7842
:10270000C0B2DBB2984238BF4030C01A704700BF39
:10271000D8F0FF1F57F0FF1F094B0A4A19781378AA
:10272000DBB2994208D00133402B28BF0023064971
:10273000C85CDBB2137070474FF0FF30704700BFCA
:10274000D8F0FF1F57F0FF1F98F0FF1F084B1A78B3
:10275000084B1B78DBB29A4207D00133402B28BFCD
:102760000023054AD05CC0B270474FF0FF3070477D
:10277000D8F0FF1F57F0FF1F98F0FF1F0A4B1B6890
:102780005B050FD5094BDA7802F0CB02DA704022F4
:102790005A74DA7842F03402DA70054B1A78054B35
:1027A000D2B21A70704700BF3480044000A00640C7
:1027B00057F0FF1FD8F0FF1F30B5304B1A7912F0D9
:1027C000300F23D072B69A7D02F0FF0122B9DA7978
:1027D00040225A7462B619E062B6294B29481A7829
:1027E0000478D2B2E4B21846244BDD79531C402B56
:1027F00028BF0023A342EDB202D0234AD5541A4683
:102800004B1E13F0FF01EFD1D2B202701B4BD978EF
:10281000C9B20C0620D51B7918061DD51B4B1C4AC6
:102820001D781378EDB2DBB21046AB420CD0134AE0
:102830000133402B1479174C28BF0023E45CE4B229
:10284000D471127D072AF0D9DBB203700B4B1A79D1
:10285000120644BF7C22DA704B060ED5074B1A795C
:1028600012F0400F194608D00B4B00221A700B4B88
:102870001B6803B11A703C23CB7030BD00A006402A
:10288000D8F0FF1F57F0FF1F98F0FF1FE0F0FF1F69
:10289000D9F0FF1F58F0FF1F56F0FF1FDCF0FF1F9D
:1028A000164B1A6842F400621A60154A002313702E
:1028B000144A1370144A1370144A1370144A137094
:1028C000144A40F2133111604FF451715160124AB1
:1028D000C0F344311170C0F3471100F01F00517074
:1028E0009072937013742C23D3700C4B40221A7087
:1028F000A3F212334FF480221A60704734800440F0
:102900004BF1FF1FE2F0FF1F54F1FF1F4CF1FF1FBF
:10291000E1F0FF1F0CB0044000B0064012E400E0FC
:10292000134A937800F0030103F0EC030B434107D3
:1029300048BF43F01003937000F00F03042B0C49C1
:1029400003D18B7943F040038B715379C20603F0B6
:10295000EF03074A48BF43F0100353719379810690
:1029600003F0EF0348BF43F010039371704700BFBB
:1029700000B0064008B50E4B1B681B0500D408BD0F
:102980000C4B1A7802F0FF0312B1FFF779FBF7E75F
:10299000094A4FF480211160084A0949D37040F276
:1029A00003120A604A60074A1370074A137008BD91
:1029B00034800440E1F0FF1F80E100E000B00640F9
:1029C0000CB004404BF1FF1FE2F0FF1F38B5044686
:1029D000094B1B7803F0FF05002BF9D1204601219C
:1029E000FEF748FD20462946FEF716FD034B53F837
:1029F0003420034B1A6038BDE1F0FF1F780B010053
:102A000050F1FF1FF8B51D4B1B681A05064633D55C
:102A10001B4B1B680BB101221A701A4B1C78013436
:102A2000282C1F4628BF0024174D2B78A34218D10D
:102A3000FEF7A2FC40280FDC144A13791B06F3D5DD
:102A40002B7813490133282B28BF0023C95CDBB244
:102A5000C9B2D1712B70E7E7FF28E5DDFFF710FB66
:102A6000E2E70B4BF6B21E550A4B01221A70074BD8
:102A7000E4B2AC223C70DA70F8BD00BF3480044090
:102A800050F1FF1F54F1FF1F4CF1FF1F00B0064033
:102A9000E3F0FF1FE1F0FF1F38B504464518AC42D4
:102AA00004D014F8010BFFF7ADFFF8E738BDFFFFC6
:102AB00008B5034B1B7813B1FFF7E2FAF9E708BD3D
:102AC000E1F0FF1F064A074B1B781078DBB2C0B25B
:102AD00083422CBF273000F1FF30C01A704700BF7F
:102AE0004CF1FF1F54F1FF1F054B1878054B1B7865
:102AF000C0B2DBB2984238BF4030C01A704700BF46
:102B00004BF1FF1FE2F0FF1F094B0A4A19781378B7
:102B1000DBB2994208D00133402B28BF002306497D
:102B2000C85CDBB2137070474FF0FF30704700BFD6
:102B30004BF1FF1FE2F0FF1F0BF1FF1F084B1A784C
:102B4000084B1B78DBB29A4207D00133402B28BFD9
:102B50000023054AD05CC0B270474FF0FF30704789
:102B60004BF1FF1FE2F0FF1F0BF1FF1F024B1A7822
:102B7000024BD2B21A707047E2F0FF1F4BF1FF1FF9
:102B800010B5214B1A7992060FD5204AD8791378BF
:102B90001F490133402B097828BF00238B42C0B264
:102BA00003D01C49C854DBB21370174AD178C9B29C
:102BB0000C0616D51379180613D5174B17481C7831
:102BC0000378DBB29C4202D16C23D37009E001335D
:102BD000282B28BF0023124CE45CDBB2E4B2D47192
:102BE00003704B060ED5084B1A7912F0400F1946A8
:102BF00008D00C4B00221A700B4B1B6803B11A70E3
:102C00002C23CB7010BD00BF00B006404BF1FF1F5E
:102C1000E2F0FF1F0BF1FF1F54F1FF1F4CF1FF1FEC
:102C2000E3F0FF1FE1F0FF1F50F1FF1F164B1A6882
:102C300042F480521A60154A00231370144A13702C
:102C4000144A1370144A1370144A1370144A40F251
:102C5000133111604FF451715160124AC0F3443185
:102C60001170C0F3471100F01F0051709072937003
:102C700013742C23D3700C4B40221A70A3F54573A8
:102C80004FF480121A60704734800440BFF1FF1F78
:102C900056F1FF1FC8F1FF1FC0F1FF1F55F1FF1FC5
:102CA00008C0044000C0064014E400E0134A9378D2
:102CB00000F0030103F0EC030B43410748BF43F06E
:102CC0001003937000F00F03042B0C4903D18B7990
:102CD00043F040038B715379C20603F0EF03074AB8
:102CE00048BF43F0100353719379810603F0EF035B
:102CF00048BF43F010039371704700BF00C0064007
:102D000008B50E4B1B68DB0400D408BD0C4B1A78C9
:102D100002F0FF0312B1FFF7B3F9F7E7094A4FF4E6
:102D200080111160084A0949D37040F203120A6009
:102D30004A60074A1370074A137008BD3480044084
:102D400055F1FF1F80E100E000C0064008C00440CC
:102D5000BFF1FF1F56F1FF1F38B50446094B1B7822
:102D600003F0FF05002BF9D120460121FEF782FB7D
:102D700020462946FEF750FB034B53F83420034B03
:102D80001A6038BD55F1FF1F780B0100C4F1FF1F19
:102D9000F8B51D4B1B68DA04064633D51B4B1B6880
:102DA0000BB101221A701A4B1C780134282C1F46D3
:102DB00028BF0024174D2B78A34218D1FEF7DCFA68
:102DC00040280FDC144A13791B06F3D52B781349DE
:102DD0000133282B28BF0023C95CDBB2C9B2D171F3
:102DE0002B70E7E7FF28E5DDFFF74AF9E2E70B4B39
:102DF000F6B21E550A4B01221A70074BE4B2AC2200
:102E00003C70DA70F8BD00BF34800440C4F1FF1F8D
:102E1000C8F1FF1FC0F1FF1F00C0064057F1FF1FA0
:102E200055F1FF1F38B504464518AC4204D014F8DC
:102E3000010BFFF7ADFFF8E738BDFFFF08B5034B07
:102E40001B7813B1FFF71CF9F9E708BD55F1FF1F17
:102E5000064A074B1B781078DBB2C0B283422CBF06
:102E6000273000F1FF30C01A704700BFC0F1FF1FCC
:102E7000C8F1FF1F054B1878054B1B78C0B2DBB2B9
:102E8000984238BF4030C01A704700BFBFF1FF1FE3
:102E900056F1FF1F094B0A4A19781378DBB29942A1
:102EA00008D00133402B28BF00230649C85CDBB2A1
:102EB000137070474FF0FF30704700BFBFF1FF1F26
:102EC00056F1FF1F7FF1FF1F084B1A78084B1B7844
:102ED000DBB29A4207D00133402B28BF0023054ABA
:102EE000D05CC0B270474FF0FF307047BFF1FF1F9A
:102EF00056F1FF1F7FF1FF1F024B1A78024BD2B22F
:102F00001A70704756F1FF1FBFF1FF1F10B5214B1C
:102F10001A7992060FD5204AD87913781F490133C0
:102F2000402B097828BF00238B42C0B203D01C4934
:102F3000C854DBB21370174AD178C9B20C0616D543
:102F40001379180613D5174B17481C780378DBB292
:102F50009C4202D16C23D37009E00133282B28BF97
:102F60000023124CE45CDBB2E4B2D47103704B0674
:102F70000ED5084B1A7912F0400F194608D00C4BA9
:102F800000221A700B4B1B6803B11A702C23CB70F4
:102F900010BD00BF00C00640BFF1FF1F56F1FF1F6C
:102FA0007FF1FF1FC8F1FF1FC0F1FF1F57F1FF1F87
:102FB00055F1FF1FC4F1FF1F1FB572B6154B7022EC
:102FC0001A70154A412111700F2102F8011C80224C
:102FD0001A701A781206FCD5104B186862B6104B9E
:102FE000984298BF0A2301AC98BF584321460A2251
:102FF000FEF7E4F90023E15C0A4A29B102EB430041
:1030000001330A2B4180F6D101335B00137004B009
:1030100010BD00BF0000024007000240080002404F
:103020007F969800F6E5FF1F00220A21026081804A
:103030008271C2717047FFFF38B5CDB20446C571C9
:103040002846FEF709FA0023A3712846FEF704FA82
:1030500008B10323A371024B1B68236038BD00BF76
:1030600018EFFF1F8180704770B50446C079FEF7E6
:10307000F3F9A1790030C1F3400218BF012001F03B
:10308000F7039042A3710E4A04D01268226083F0C5
:1030900002030FE016682568751BA688B5420AD39F
:1030A00001F00101814206D01268226083F0010321
:1030B00043F00803A371A079C0F3C00070BD00BF46
:1030C00018EFFF1F807900F00100704781F0004188
:1030D00002E000BF83F0004330B54FEA41044FEAFD
:1030E000430594EA050F08BF90EA020F1FBF54EA98
:1030F000000C55EA020C7FEA645C7FEA655C00F034
:10310000E2804FEA5454D4EB5555B8BF6D420CDD04
:103110002C4480EA020281EA030382EA000083EA87
:10312000010180EA020281EA0303362D88BF30BD27
:1031300011F0004F4FEA01314FF4801C4CEA11317D
:1031400002D0404261EB410113F0004F4FEA0333DC
:103150004CEA133302D0524263EB430394EA050F67
:1031600000F0A780A4F10104D5F1200E0DDB02FAD6
:103170000EFC22FA05F2801841F1000103FA0EF26A
:10318000801843FA05F359410EE0A5F120050EF130
:10319000200E012A03FA0EFC28BF4CF0020C43FA61
:1031A00005F3C01851EBE37101F0004507D54FF06E
:1031B000000EDCF1000C7EEB00006EEB0101B1F5BE
:1031C000801F1BD3B1F5001F0CD349085FEA300004
:1031D0004FEA3C0C04F101044FEA445212F5800F0F
:1031E00080F09A80BCF1004F08BF5FEA500C50F1AC
:1031F000000041EB045141EA050130BD5FEA4C0C8F
:10320000404141EB010111F4801FA4F10104E9D117
:1032100091F0000F04BF01460020B1FA81F308BF0E
:103220002033A3F10B03B3F120020CDA0C3208DDDA
:1032300002F1140CC2F10C0201FA0CF021FA02F1B5
:103240000CE002F11402D8BFC2F1200C01FA02F125
:1032500020FA0CFCDCBF41EA0C019040E41AA2BF4A
:1032600001EB0451294330BD6FEA04041F3C1CDA12
:103270000C340EDC04F11404C4F1200220FA04F032
:1032800001FA02F340EA030021FA04F345EA0301DC
:1032900030BDC4F10C04C4F1200220FA02F001FA9E
:1032A00004F340EA0300294630BD21FA04F0294620
:1032B00030BD94F0000F83F4801306BF81F48011B9
:1032C0000134013D4EE77FEA645C18BF7FEA655C2C
:1032D00029D094EA050F08BF90EA020F05D054EAFE
:1032E000000C04BF1946104630BD91EA030F1EBF03
:1032F0000021002030BD5FEA545C05D14000494107
:1033000028BF41F0004130BD14F580043CBF01F5F9
:10331000801130BD01F0004545F0FE4141F47001DF
:103320004FF0000030BD7FEA645C1ABF19461046BA
:103330007FEA655C1CBF0B46024650EA013406BFBB
:1033400052EA033591EA030F41F4002130BD00BF7A
:1033500090F0000F04BF0021704730B54FF4806437
:1033600004F132044FF000054FF0000150E700BFB8
:1033700090F0000F04BF0021704730B54FF4806417
:1033800004F1320410F0004548BF40424FF0000104
:103390003EE700BF42004FEAE2014FEA31014FEA47
:1033A00002701FBF12F07F4393F07F4F81F0605196
:1033B000704792F0000F14BF93F07F4F704730B505
:1033C0004FF4607401F0004521F0004120E700BF98
:1033D00050EA010208BF704730B54FF000050AE01F
:1033E00050EA010208BF704730B511F0004502D520
:1033F000404261EB41014FF4806404F132045FEA22
:10340000915C3FF4DCAE4FF003025FEADC0C18BFC6
:1034100003325FEADC0C18BF033202EBDC02C2F1BC
:10342000200300FA03FC20FA02F001FA03FE40EA4E
:103430000E0021FA02F11444C1E600BF70B54FF04E
:10344000FF0C4CF4E06C1CEA11541DBF1CEA135530
:1034500094EA0C0F95EA0C0F00F0DEF82C4481EA98
:10346000030621EA4C5123EA4C5350EA013518BFB8
:1034700052EA033541F4801143F4801338D0A0FBA5
:1034800002CE4FF00005E1FB02E506F00042E0FB52
:1034900003E54FF00006E1FB03569CF0000F18BF58
:1034A0004EF0010EA4F1FF04B6F5007F64F5407400
:1034B00004D25FEA4E0E6D4146EB060642EAC62193
:1034C00041EA55514FEAC52040EA5E504FEACE2E00
:1034D000B4F1FD0C88BFBCF5E06F1ED8BEF1004F03
:1034E00008BF5FEA500E50F1000041EB045170BD7F
:1034F00006F0004646EA010140EA020081EA0301C3
:10350000B4EB5C04C2BFD4EB0C0541EA045170BDBE
:1035100041F480114FF0000E013C00F3AB8014F138
:10352000360FDEBF002001F0004170BDC4F1000481
:10353000203C35DA0C341BDC04F11404C4F1200502
:1035400000FA05F320FA04F001FA05F240EA02005D
:1035500001F0004221F0004110EBD37021FA04F693
:1035600042EB06015EEA430E08BF20EAD37070BD4D
:10357000C4F10C04C4F1200500FA04F320FA05F0AC
:1035800001FA04F240EA020001F0004110EBD370AE
:1035900041F100015EEA430E08BF20EAD37070BD1E
:1035A000C4F1200500FA05F24EEA020E20FA04F3F7
:1035B00001FA05F243EA020321FA04F001F00041A6
:1035C00021FA04F220EA020000EBD3705EEA430E17
:1035D00008BF20EAD37070BD94F0000F0FD101F046
:1035E0000046400041EB010111F4801F08BF013C7F
:1035F000F7D041EA060195F0000F18BF704703F0BD
:103600000046520043EB030313F4801F08BF013D43
:10361000F7D043EA0603704794EA0C0F0CEA1355FF
:1036200018BF95EA0C0F0CD050EA410618BF52EAB9
:103630004306D1D181EA030101F000414FF00000BF
:1036400070BD50EA410606BF1046194652EA4306CD
:1036500019D094EA0C0F02D150EA013613D195EA41
:103660000C0F05D152EA03361CBF104619460AD189
:1036700081EA030101F0004141F0FE4141F4700193
:103680004FF0000070BD41F0FE4141F4780170BD83
:1036900070B54FF0FF0C4CF4E06C1CEA11541DBFE8
:1036A0001CEA135594EA0C0F95EA0C0F00F0A7F8EA
:1036B000A4EB050481EA030E52EA03354FEA013117
:1036C00000F088804FEA03334FF0805545EA13132A
:1036D00043EA12634FEA022245EA111545EA1065F2
:1036E0004FEA00260EF000419D4208BF964244F189
:1036F000FD0404F5407402D25B084FEA3202B61AA8
:1037000065EB03055B084FEA32024FF480104FF47B
:10371000002CB6EB020E75EB030E22BFB61A7546EF
:1037200040EA0C005B084FEA3202B6EB020E75EB82
:10373000030E22BFB61A754640EA5C005B084FEAEA
:103740003202B6EB020E75EB030E22BFB61A7546B7
:1037500040EA9C005B084FEA3202B6EB020E75EBC2
:10376000030E22BFB61A754640EADC0055EA060E83
:1037700018D04FEA051545EA16754FEA06164FEAC6
:10378000C30343EA52734FEAC2025FEA1C1CC0D172
:1037900011F4801F0BD141EA00014FF000004FF0FF
:1037A000004CB6E711F4801F04BF01430020B4F1C0
:1037B000FD0C88BFBCF5E06F3FF6AFAEB5EB030C78
:1037C00004BFB6EB020C5FEA500C50F1000041EB75
:1037D000045170BD0EF0004E4EEA113114EB5C0442
:1037E000C2BFD4EB0C0541EA045170BD41F4801115
:1037F0004FF0000E013C90E645EA060E8DE60CEA1D
:10380000135594EA0C0F08BF95EA0C0F3FF43BAF39
:1038100094EA0C0F0AD150EA01347FF434AF95EAF0
:103820000C0F7FF425AF104619462CE795EA0C0FD4
:1038300006D152EA03353FF4FDAE1046194622E7A1
:1038400050EA410618BF52EA43067FF4C5AE50EA7B
:1038500041047FF40DAF52EA43057FF4EBAE12E76B
:103860004FF0FF3C06E000BF4FF0010C02E000BF4C
:103870004FF0010C4DF804CD4FEA410C7FEA6C5C2F
:103880004FEA430C18BF7FEA6C5C1BD001B050EAD2
:10389000410C0CBF52EA430C91EA030F02BF90EABD
:1038A000020F0020704710F1000F91EA030F58BF7C
:1038B000994208BF90422CBFD8176FEAE37040F0DE
:1038C000010070474FEA410C7FEA6C5C02D150EA7C
:1038D000013C07D14FEA430C7FEA6C5CD6D152EA37
:1038E000033CD3D05DF8040B704700BF84461046FC
:1038F00062468C461946634600E000BF01B5FFF7FB
:10390000B7FF002848BF10F1000F01BD4DF808EDCA
:10391000FFF7F4FF0CBF012000205DF808FB00BF9B
:103920004DF808EDFFF7EAFF34BF012000205DF8F5
:1039300008FB00BF4DF808EDFFF7E0FF94BF012042
:1039400000205DF808FB00BF4DF808EDFFF7CEFF43
:1039500094BF012000205DF808FB00BF4DF808ED82
:10396000FFF7C4FF34BF012000205DF808FB00BF53
:1039700003460846194606F0FBBD00BF08B5042003
:1039800000F060F8024B03600249034A00F0FEFCBD
:10399000600E0100700E01009544000030B5054630
:1039A00085B0082000F04EF82946044601AA03A875
:1039B00001F0A4F8204603A900F0C6FF039802A96D
:1039C0000C3801F013F820460749084A00F0DEFCE5
:1039D000204600F063F800F0F1FB039802A90C38D0
:1039E00001F004F8F4E700BF20100100C548000012
:1039F00030B5054685B0082000F024F82946044675
:103A000001AA03A801F07AF8204603A900F0ACFF50
:103A1000039802A90C3800F0E9FF20460749084A3C
:103A200000F0B4FC204600F039F800F0C7FB039822
:103A300002A90C3800F0DAFFF4E700BF6C100100B7
:103A40001949000038B500F18005284606F0D2FF7C
:103A5000044638B120460021802207F053FB04F1D0
:103A6000800038BD0B4AB5F5007F116807D80B46BA
:103A7000D80706D50134042C4FEA5303F8D101F0DE
:103A800001F90120A040044B0143116003EB4424E1
:103A9000E0E700BFCCF1FF1FD0F1FF1F0A4B9842B7
:103AA00003D303F50062904202D3803806F0AABF28
:103AB000064AC31A11685B0A012000FA03F321EADF
:103AC00003011160704700BFD0F1FF1FCCF1FF1F51
:103AD00010B5034B0360044600F002FE204610BD03
:103AE000F80D010010B5054B0360044600F0F8FD29
:103AF0002046FDF761FC204610BD00BFF80D010017
:103B000070B584B00D46089C9442064607D0B06854
:103B1000066800942946346AA04704B070BD19466F
:103B20000392029300F078FD039A029B0028EED0E6
:103B30000620F2E72DE9F04F85B0884619461F466A
:103B400092460E9EDDF84090119D834600F064FD84
:103B5000044698B1B8F1000F2E6085F804A022DB6E
:103B600046440024B14514BF4FF001094FF0060947
:103B7000204685F8069005B0BDE8F08F4E4517D079
:103B8000DBF808000F9B046801930096CDF80890BD
:103B90000395E469414652463B46A0470446204609
:103BA00005B0BDE8F08F18F1020F0AD00024F6E747
:103BB00058460F9900F030FD0028E1D085F805A0A7
:103BC000EDE70123AB710024E9E700BFF8B5074634
:103BD0000E4615461C4600F09BFD30B9B8680768D4
:103BE000234631462A46BC69A047F8BD30B40024BC
:103BF000234610F8012B02F07F059D402C4315064B
:103C000003F10703F5D41F2B06D8520604D54FF055
:103C1000FF3202FA03F31C430C6030BC704700BF54
:103C20002DE9F041502884B00646884646D000F081
:103C30000F010C2940D8DFE801F0072C3B07193FA2
:103C40003F3F3F211D071900154655F8044B44B16D
:103C500006F07001102908BF90464444320648BF60
:103C6000246828461C6004B0BDE8F081146802F1A5
:103C70000805ECE7154635F9024BE8E7104603A9BD
:103C800001920093FFF7B2FF039C019A009B054647
:103C9000DDE700242746154615F8011B01F07F00DB
:103CA000B840090644EA000407F10707F4D4CEE758
:103CB000154635F8024BCAE706F052FCD51C25F034
:103CC000030555F8044B1C60284604B0BDE8F0819C
:103CD000FF2808B50FD000F07003202B18D00CD9A6
:103CE000402B10D0502B06D0302B0AD10846BDE80F
:103CF00008400CF087BB002008BD002BFBD0102B28
:103D0000F9D006F02DFC0846BDE808400CF06ABB6F
:103D10000846BDE808400CF079BB00BFF8B50C467A
:103D20001646074608B10CF05DFB30602578FF2D84
:103D300004F1010433D039462846FFF7C9FF224673
:103D40000146331D2846FFF76BFF0446601C2378AD
:103D50003375FF2B2AD0102300223375134610F839
:103D6000011B01F07F049C40090642EA040203F1B2
:103D70000703F4D40244F260037873750024013021
:103D8000234610F8011B01F07F059D400A0644EA16
:103D9000050403F10703F4D404443461F8BD7060F2
:103DA00023783375FF2B04F10100D4D10023F36095
:103DB000E2E700BF2DE9F04F00F0030393B00025C8
:103DC000012B0E461446069500F0A6800ED3022B5A
:103DD0000AD1304621460CF0EFFA002800F0A4800A
:103DE000092013B0BDE8F08F06F0BAFB00F0080020
:103DF0005FFA80F84FF0010912AA002142F82C6DF9
:103E00000B46009220460C220BF08CFD20460CF055
:103E1000EFFA07460028DCD00CAA39462046039268
:103E2000FFF77CFF214683469DF84400FFF750FFD3
:103E30000BAD00210E900B460F22009520460BF093
:103E400049FD0B9A109B22F001029B4548EA0908A4
:103E500002F1FF3939D29DF845A000215046FFF705
:103E600037FF5A46014609AB5046FFF7D9FE9DF889
:103E700045A0834600215046FFF72AFF5A460146D7
:103E80000AAB5046FFF7CCFE9DF845A083460021C3
:103E90005046FFF71DFF5A4601462B465046FFF796
:103EA000BFFE002183460B461BF801EB0EF07F029C
:103EB0009A401EF0800F41EA020103F10703F3D19B
:103EC000099A0C9B134499451DD24FF000094FF0FD
:103ED000010B002518F0010F4CD0BBF1020F3FF48D
:103EE00078AF0AAB0021204600930D220B46069CBA
:103EF0000BF0F0FC0A9B7462B562F762C6F8309072
:103F0000336206206DE70A9A13449945C0F0928007
:103F1000109B9B459FD3D8E700F0080000F0FF08F6
:103F200030B14FF0020967E7082013B0BDE8F08F09
:103F30000CA9009103911046434641460D22356A73
:103F40000BF0C8FC0C9B9D42EBD112AA414642F8F3
:103F50002C6D4346009220460C2206F128050BF0FA
:103F6000E1FC95E8A002B9F1000F00F015814FF0D7
:103F7000030B3DE018F0080F36D0BBF1010F00F045
:103F80001A81002DC0F2138112AB002143F8286D75
:103F90000A46009320460B460BF0C4FC12AA0021EF
:103FA00042F8245D0B460092204601220BF0BAFC39
:103FB0000AAD00210B4620460F2200950BF08AFC2B
:103FC0000A9B009503F00103002120460F2249EAD5
:103FD00003040B460A940BF0A5FCBBF1020F36D08C
:103FE000072013B0BDE8F08FBBF1010F00F0D480C3
:103FF000002DC9DA3946039A2046FFF78FFE9DF857
:1040000044002146FFF764FEAA0082F00302D24377
:104010000F9F0E90BB58174433B13A46002352F815
:10402000041F01330029FAD10422B362F0627763DE
:104030003263A9E70B9B7BB10D9A03EB020969B9C7
:10404000B9F1000F3FF4C5AE4FF0020B41E7304627
:1040500000F010F90720C4E69946F0E7109B0139FB
:104060005818B9F1000F3FF4B4AE0028ECD018F0A6
:10407000080305937CD047224E235521327073707C
:1040800043224623B170F2704F2152223371002334
:104090007171B271F3714FF0000B049408A9FFF72E
:1040A000A5FD09A98246FFF7A1FD089B002B2FD093
:1040B00031DD9DF84400FF2858D000F00702042AA3
:1040C0003FF692AE01A151F822F000BF0B41000073
:1040D000E93D0000054100000B410000E140000007
:1040E000DB005A420F9B0E991A440AABFFF798FD6A
:1040F0000A99F9B1002E52D1099B002B43D00AEB4B
:104100000300CBE75B005A42ECE79B005A42E9E729
:104110004FF0010BF0E70133C3EB83730EB1059A47
:104120006AB10F9A52F82330D3F1010338BF00234C
:10413000002BE1D0049C089D4FF0030BCAE60F9AB8
:10414000069852F823100B9002EB83031C4619B912
:1041500017E054F8041FA1B12144304600222B4639
:1041600000F032F80028F4D00023E1E70022B9E79C
:10417000F379012B0CBF56F8203C06F15803069347
:1041800089E70123D4E7049CBBF1000F3FF421AE83
:104190001D464FF0020B9DE6304600F015FB304601
:1041A000002206AB00F010F80028C3D1A4E700F00D
:1041B00075FD00F087F900F065FD00BF1EB400F04A
:1041C0008BF81EBC0BF040FFF0B50278472A83B095
:1041D0000D461E461AD00023244C01932268204627
:1041E0009368984780B1019B1B68019302272A6856
:1041F000214628461469012301AAA04710B1019B5A
:104200003360384603B0F0BD0127F0E743784E2B0A
:10421000E1D18378552BDED1C378432BDBD10379F1
:10422000462B16D00379432BD5D143792B2BD2D1F2
:1042300083792B2BCFD1C379012BCCD804D050F864
:10424000204C58300190C9E750F8200C50F8784CB9
:10425000F8E743794F2BE5D18379522BE2D1C3792B
:10426000002BDFD10193024CB8E700BF5C0F0100C7
:10427000F00E010010B5044600F0B4F92378472B86
:10428000A4F1200204D0836823BB8260012010BD0A
:1042900063784E2BF7D1A378552BF4D1E378432BD9
:1042A000F1D12379432BEED163792B2BEBD1A37979
:1042B0002B2BE8D1E379012BE5D854F8043C0133EA
:1042C000012B44F8043CE1D1836844F8083C826047
:1042D000012010BD00F0D6FC08B500F083F983681A
:1042E00083B393F82020472A04D00022826003F190
:1042F000200008BD93F821204E2AF6D193F8222001
:10430000552AF2D193F82320432AEED193F82420A2
:10431000432AEAD193F825202B2AE6D193F82620C8
:104320002B2AE2D193F82720012ADED8DA69013A54
:10433000DA61002ADBD19A69826000229A6103F176
:10434000200008BD00F09EFC012810B51AD8A1F18C
:104350002803BFF35F8F53E8002F013A43E80020A2
:104360000028F8D1BFF35F8F5AB951F81C3C01F116
:1043700058040BB1204698472046BDE81040FFF78F
:104380008DBB10BD51F8140C00F068FC2DE9F84FFE
:1043900004460F46904600F025F903461C4A59682A
:1043A0001C484E1C5E60D0F800A010681A4A44F801
:1043B0006C0C2B234FF04E0C4FF0550E0021A4F146
:1043C000580543264FF0010B4FF0470904F857CC2E
:1043D00004F856EC04F8511C44F8502C04F8533CF3
:1043E00004F8523C44F8787C44F8748C44F880BC5F
:1043F00044F870AC04F8589C284604F8556C04F84E
:10440000546C0BF00FFE284600F05CF800F03AFC0C
:1044100010E6FF1F0CE6FF1F4943000010B500F037
:10442000E1F842680368013242606BB193F82020E2
:10443000472A0BD00022026003F1200420460BF033
:1044400015FE204600F03EF800F01CFC93F82120F9
:104450004E2AEFD193F82220552AEBD193F823204E
:10446000432AE7D193F82420432AE3D193F8252067
:104470002B2ADFD193F826202B2ADBD193F8272093
:10448000012AD7D85A6952425A61D5E70048704785
:104490007C0E010010B5034B0360044600F0D6F813
:1044A000204610BD600E010010B5054B03600446A8
:1044B00000F0CCF82046FCF77FFF204610BD00BF7F
:1044C000600E010038B5044600F08CF821780368CE
:1044D0004729A4F1200205D0002B31D11C460260EF
:1044E000204638BD61784E29F6D1A1785529F3D1FF
:1044F000E1784329F0D121794329EDD161792B2944
:10450000EAD1A1792B29E7D1E1790129E4D854F83E
:104510000C5C002D11DB0135416844F80C5C9A42BB
:1045200001F1FF3141601CBF44F8103C026020469D
:10453000646A0BF0C5F9204638BDC5F10105EBE70B
:1045400000F0A0FB013101D0FFF738FE00F04CF97C
:1045500008B500F043F80246006800283DD090F806
:104560002010472906D0002120301160BDE8084006
:104570000BF0A8B990F821104E29F4D190F8221030
:104580005529F0D190F823104329ECD190F824104C
:104590004329E8D190F825102B29E4D190F8261072
:1045A0002B29E0D190F827100129DCD84169002996
:1045B00005DB013908D04B1C0DD0416108BD01312C
:1045C000FBD103691360F8E7016911602030BDE891
:1045D00008400BF077B900F055FB08BD0048704764
:1045E000D0F9FF1F00487047D0F9FF1F014B03604F
:1045F000704700BFC00E01000020704700207047C8
:104600000020704710B5034B03600446FCF7D4FE4E
:10461000204610BDC00E0100814208B511D040688F
:1046200003782A2B0BD049680B782A2B08BF01315D
:1046300007F052F8D0F1010038BF002008BD00207B
:1046400008BD012008BD00BFFFF7E6BF014B0360B6
:10465000704700BFE00E0100014B0360704700BFD0
:10466000E00E010000487047140F01000048704739
:10467000240F010010B5034B03600446FCF79CFEB9
:10468000204610BDE00E010010B5034B0360044648
:10469000FCF792FE204610BDE00E010070B50368E5
:1046A00084B000249E69009410231546029312687A
:1046B0008DF804406B460394B0479DF8043003F036
:1046C0000603062B03BF009B2B600120204604B08D
:1046D00070BD00BF0098904214BF012006207047B3
:1046E00010B5034B03600446FFF780FF204610BD62
:1046F000C80F010010B5054B03600446FFF776FFB5
:104700002046FCF759FE204610BD00BFC80F01002F
:1047100038B515461C46FFF77FFF20B10822062357
:104720002560E260237138BDF8B516461C46074681
:104730000D46FFF771FF08B9032C00D9F8BD2B68AF
:10474000394632465B6928469847F8BDF0B583B0D4
:104750001746089C0A9DAC4206460CD030461946C6
:10476000FFF75AFF20B10B9901230C600F718B7179
:10477000002003B0F0BD09990193FFF74DFF019BA5
:104780000028EBD00B9A5771F2E700BF0378472B54
:1047900001D00020704743784E2BFAD18378552BF7
:1047A000F7D1C378432BF4D10379432BF1D143796B
:1047B0002B2BEED183792B2BEBD1C07901288CBF29
:1047C00000200120704700BF10B5044628B1FFF754
:1047D00079FE2046FFF7DAFF08B900F053FA54F8E3
:1047E000140C00F03BFA00BF2DE9F04F83B00446F3
:1047F000FFF7CCFF70B154F8185C54F8146CA76A3A
:10480000D4F83080D4F834902046FFF75BFE284679
:1048100000F040FA2046FFF755FE00F03FFAFFF7A0
:1048200051FE00F02FFAFFF74DFEFFF7D7FE0368A9
:1048300093F82720012A30D003F178020024009257
:1048400028F0030803F1200BA246BA451BDAD9F879
:10485000005005B14D445846294600226B46FFF7EB
:10486000B3FCF8B92B681349D3F810C002AA01238E
:1048700042F8040D2846E047002818BF01240AF139
:10488000010AC144E1E754B10420FFF7DBF80A4B09
:1048900003600849094AFFF779FD1A68CEE73046F8
:1048A00000F0DCF9FFF7BAFDFFF752FEFFF750FE0C
:1048B000FFF784FCB00F0100700F010059460000A3
:1048C0004068704710B543680C4A0D4901600446C2
:1048D000A3F10C00904282B005D12046FFF7B6FE4E
:1048E000204602B010BD53F8042C511E002A43F894
:1048F000041CF2DC01A900F06DF8EEE7DCF9FF1F03
:104900004810010010B50446FFF7DCFF2046FCF715
:1049100053FD204610BD00BF10B5034B0360044695
:10492000FFF7D0FF204610BD8010010010B5054BE9
:1049300003600446FFF7C6FF2046FCF73DFD204616
:1049400010BD00BF80100100064B10B5044640F8B2
:10495000043B00F07BF8204610BD2046FFF776FEB2
:10496000FFF72CFC4810010010B50446FFF7ECFFE0
:10497000014B2360204610BD80100100134B98426C
:1049800010B504461ED8884214D94A00944238BF54
:10499000144604F11D02B2F5805F04F10D000BD93D
:1049A000A14209D204F58054C2F30B02A41A9C421E
:1049B00028BF1C4604F10D00FCF7FCFC00224460FB
:1049C000826010BD0248FFF713F800BFFCFFFF3FF5
:1049D000D0100100FCF7F0BC836810B5002B03F188
:1049E000FF34846001DCFFF7F5FF10BD024B83420A
:1049F00000D17047FFF7F0BFDCF9FF1F38B50B4659
:104A0000044603C810441A46FFF7B8FF226805465B
:104A100022B90C300C4B9D4210D138BD012A00F157
:104A20000C0306D0184604F10C01FCF7C3FB226806
:104A3000F0E7227B027322681846EBE700232A6026
:104A4000AB608354E9E700BFDCF9FF1F10B50B68CA
:104A500053F8042C002A044682B0A3F10C000BDBAF
:104A60000949884218BF0132184618BF43F8042C80
:104A70002060204602B010BD01A90022FFF7BEFF52
:104A80002060204602B010BDDCF9FF1F884270B5DF
:104A90000B4604461ED000B30E1A30460021FFF725
:104AA0006DFF012E054600F10C030CD122782A730C
:104AB0000F4A954216D1184670BDFFF75FFF264694
:104AC000054600F10C03184621463246FCF772FBFE
:104AD0000346EDE7074B184670BD002BEDD00648A6
:104AE000FEF75CFF00222E60AA609A55E3E700BF44
:104AF000DCF9FF1FE8F9FF1F9411010070B50C46A7
:104B00000546164661B1084607F0CCF82118204644
:104B100032464FF00003FFF7B9FF2860284670BD0A
:104B20004FF0FF31F3E700BF00487047B0120100BB
:104B300000487047B8120100014B0360704700BF86
:104B40002812010002604160704700BF10B5036881
:104B500082B014461B690A46014668469847636856
:104B6000019A9A4202D0002002B010BD2068009B3A
:104B70001B1A5842584102B010BD00BF4B68834217
:104B800001D0002070470868831A58425841704786
:104B9000014B0360704700BF28120100014B036006
:104BA000704700BF2812010010B5034B0360044694
:104BB000FCF702FC204610BD2812010010B5034B83
:104BC00003600446FCF7F8FB204610BD28120100E4
:104BD00010B5034B03600446FCF7EEFB204610BD06
:104BE0002812010010B5044682B0104607F050F8B4
:104BF00001AA01462046FFF781FF204602B010BD02
:104C000010B5044682B0104607F042F801AA0146EA
:104C10002046FFF773FF204602B010BD10B5084CC8
:104C20000848094B094903602246FEF7A1FE0848DF
:104C3000084B094903602246BDE81040FEF798BEC4
:104C400060E5FF1FF0F9FF1F901201009D4B00006F
:104C5000ECF9FF1F50120100914B000008B580478E
:104C600005F07EFCFFF72EFC05F07AFC0C460546AD
:104C7000FFF76EFC013401D0FFF7A0FA2846FFF7DA
:104C8000B3FD00BF08B5024B1868FFF7E7FF00BF90
:104C900010E6FF1F08B58047FFF7F4FF08B5024B89
:104CA0001868FFF7F7FF00BF0CE6FF1F70B53D4B1C
:104CB0001A7882B0002A36D101241C7000F080F8E6
:104CC00000285CD0406803782A2B02AB0CBF051982
:104CD000054600214FF0FF3243F8042D324C0A46BE
:104CE000284605F0CDFB23680646DB682F480121E6
:104CF000302205F047FE019B7BB123682846D96826
:104D000005F07AFC23682A48DB680121022205F0BD
:104D100039FE019B8BB1FFF781FB23683046D968D0
:104D200005F06AFCEEE7204B22481B680121DB6896
:104D30001D2205F027FE05F013FC304605F062FE4B
:104D4000E9E701290D4627D1FFF7BCFB03689B6803
:104D5000984723680646DB68174829460B2205F06A
:104D600011FE23683046D96805F046FC23680A2006
:104D7000D96805F007FCFFF7EBFB05F0F1FB0A4BE8
:104D80000E481B682146DB682D2205F0FBFDF4E789
:104D9000FFF7DEFBFFF712FAFFF794FBFFF7D8FBF4
:104DA000EBE700BFF4F9FF1F40EAFF1F2C130100DF
:104DB000601301000C13010094130100641301003F
:104DC00008B5FFF70FFC006830B190F82730012BD1
:104DD00004BF00687838006808BD00BF70B44C1E7E
:104DE0004A2C2CD8DFE804F03C3C3C3C2B2B2B2BF2
:104DF00026263C2626262626262626262626262B38
:104E000027272727272727273C26262626262B261F
:104E1000273D3C2B3C27273D2B2B26263C3C3C3C6E
:104E20003C263C3C263C2B2B2626262B2B2B2626B1
:104E3000263C3C00CAB144698569AC4202DB0020D3
:104E400070BC704704EB440506690134AD00446151
:104E500074190CD071556260A360204670BC704715
:104E60001AB1002BE7D11846EAE71046E8E72046DA
:104E7000E6E700BF30B443698469A34209DA03EB73
:104E8000430405690133A40043612B1901D001B12A
:104E900012B9002030BC70470020285559609A6034
:104EA000184630BC704700BF2DE9F041C568044684
:104EB000884617462B780E4617E0562B22D04B2BF0
:104EC0002DD1236B0135002F03F10603E560236329
:104ED0000CBF1B211E21002213462046FFF77EFF38
:104EE0003060D0B1E5682B78061D722BE5D1236BBD
:104EF0000135002F03F10903E56023630CBF19217D
:104F00001C21E8E7236B0135002F03F10903E5605D
:104F100023630CBF1A211D21DDE7BDE8F081BFB975
:104F2000462B15D1464513D01D241E201C2108E018
:104F30001B2A10D0192A00D1197003F10408464524
:104F400006D0D8F800301A781A2AF1D11C70F4E78C
:104F50003046BDE8F0811870EFE700BF10B4C468B8
:104F60002378522B0A4610D04F2B03D008465DF809
:104F7000044B7047036B0333036320210134C46087
:104F800000235DF8044BFFF729BF036B0233036373
:104F90001F21F3E72DE9F0410F46C1680C782E2C54
:104FA000804627D00B462E2C14D15C78303C092C3F
:104FB00010D89C78A4F13002092A03F1020017D816
:104FC000DD1C2B4601351C78A4F13006092EF8D9DA
:104FD0002E2CEAD05A1AC8F80C304046FFF74AFF88
:104FE0003A4603464B214046BDE8F041FFF7F6BE86
:104FF0000346D8E74B78A3F16102192A0AD88A1C24
:10500000134601321C78A4F161001928F8D95F2CED
:10501000F6D0C8E75F2BC5D1F1E700BF2DE9F0035B
:10502000C2681378532B03D00020BDE8F00370470B
:10503000531CC3605378ABB1931CC36053785F2B90
:1050400052D10021036A9942EED2836AC2690133C8
:105050008362BDE8F00352F821007047A3F14102DA
:10506000192A46D9826812076AD400296AD13F4AB0
:1050700002F1C40502E01C32AA42D5D014789C4249
:10508000F9D15569002D6AD043698469D2F8188036
:10509000A34262DA03EB4307D0F810C0BF0001332C
:1050A0001CEB070643615FD04FF018090CF807901E
:1050B00037467560C6F80880C76200294AD0D568AF
:1050C0001269016BA34211440163ADDA03EB4301A2
:1050D0000469013389004361631843D01820605488
:1050E00018465D609A60A0E7A3F13005EAB2092A8C
:1050F000B4D8002212E002EBC20103EB8103A3F15A
:1051000030018A4290D8C2681378541C1BB1C46025
:1051100013785F2B12D0A3F130050A46E9B2A3F150
:1051200041040929E4B2E6D9192C3FF67DAF02EB20
:10513000C20103EB8103A3F13701E2E7013181E70B
:10514000012194E7C2681178433901298CBF0021FD
:1051500001218CE755689268B3E70027ACE78469C2
:105160004369AAE7184660E73746A5E7A0130100A0
:1051700070B50D46D0F80011FF29044606D04A1C30
:10518000C4F80021655484F8045170BD0026D0F89D
:105190000831D0F80C2180F8FF609847D4F820310E
:1051A00031465A1CC4F820210122C4F8002165545C
:1051B00084F8045170BD00BF70B4026813786E2B80
:1051C000054618D00026A3F13002092A18D82A680B
:1051D0000020013200EB80042A6003EB440412F843
:1051E000013BA3F130010929A4F13000F2D906B145
:1051F000404270BC7047531C036053780126E2E7BD
:105200000020F4E743698269934210B513DA03EB97
:1052100043020169920001338C18436108D0402396
:105220008B540C30FFF7C8FF23466060184610BD52
:105230002346184610BD0023184610BD10B5C3689C
:105240001A785F2A04460BD06E2A06D00C30FFF77E
:10525000B3FFE3681A785F2A06D04FF0FF3010BD25
:1052600000200133E36010BD0130FAE738B5C368B0
:105270001A78542A044601D0002038BD0133C36097
:10528000FFF7DCFF051EF7DBA16A6369A269013144
:105290009342A162F0DA03EB4302216901339200E9
:1052A00063618B18E8D005248C545D60184638BDC6
:1052B00008B5C3681A785F2A01D0012008BD013300
:1052C00040F80C3FFFF778FFC043C00F08BD00BF98
:1052D00070B504460C30FFF76FFF061E32DDE5683F
:1052E00063685B1B9E422FDCA268AB195207E36028
:1052F00015D4092E0CDD28461449082205F06EFE4F
:1053000030B92B7A2E2B10D05F2B0ED0242B0CD043
:10531000294632462046FFF7ADFDE06270BDAA5D2A
:10532000242A04BF0133E360E3E76B7A4E2BEFD10D
:10533000236B074916339E1B266320461522FFF771
:1053400099FDEAE7002070BD0020E6E7D81A0100C9
:10535000E41A010038B5044629B9C3681A7832B195
:105360005A1CC2601978682912D0762901D0002011
:1053700038BD04F10C052846FFF71EFFE3681A78D4
:105380005F2AF4D10133E3602846FFF715FF03E0FD
:1053900004F10C00FFF710FFE3681A785F2AE6D1EA
:1053A0000133E360012038BDD0F810310246C3B1AB
:1053B0005A680B68906870B102782F2A0DD1002BC3
:1053C00004DC09E002782F2A07D143B18068013B51
:1053D0000028F7D17047704701D00020704740681F
:1053E000704701211846C2F81811704738B50C46AD
:1053F000054691B323784A2B27D8DFE803F02E2601
:10540000262626302E2B2B26262626262626262620
:105410002626262626262E26262626262626262624
:1054200026262626262E2626262626262626262E0C
:105430002B2626262626262626262626262E2626FF
:1054400026262E262E26262E2E0028466168FFF7B9
:10545000CDFF18B9A468002CCCD1002038BD284657
:10546000211DFFF7A1FF0028F7D003782F2BF4D1DF
:1054700038BD00BFF0B55368946801330B44A342B4
:1054800083B015460E46074613D8EC680CB103B03E
:10549000F0BD95E80900324639461844FBF78AFE0C
:1054A00095E80C003244D4546B681E446E6003B01F
:1054B000F0BDD268002AEAD11CB9022B4FF00204D9
:1054C00002D96400A342FCD82868214605F094FE66
:1054D000034610B12860AC60D7E72868019305F057
:1054E00091FA019B2B6001226B60AB60EA60CEE712
:1054F0002DE9F041C3681A784C2A054602D00020F5
:10550000BDE8F0815A1CC26059785F293AD05A2907
:105510000DD10132EA602846002100F0F3FDEA686F
:105520001378452BEBD10132EA60BDE8F08100F041
:1055300003FA07460028E2D00378272B33D0E96826
:105540000B786E2B28D04FF03B08452B34D0002B26
:10555000D5D04B1C01E0002CD1D0EB601E4613F8D7
:10556000014B452CF7D1721A2846FFF783FC3A46C7
:10557000034641462846FFF731FCEA681378452B7D
:10558000BDD1D0E79A1CC2609B785A2BC1D0452B65
:105590004FF00000B3D1C6E74A1CEA604B784FF0E9
:1055A0003C081146D1E743681A7C002AC7D05A68E4
:1055B0002B6B9B1A2B63C2E70022D5E7F0B5C168BD
:1055C000C76A0B78493B012B83B004461ED84A1C9E
:1055D000C2604B78452B45D002AE002146F8041D31
:1055E000493B0F2B35D8DFE803F02F2F3414343428
:1055F000343434343434343434080132E2602046F4
:1056000001F06CFAE3681A78452A27D0002003B02D
:10561000F0BD2046FFF76CFF054620462F212A46A5
:105620000023002DF2D0FFF7D9FB306000F108060F
:105630000028EBD0E2681378452BD1D10198E762BE
:105640000132E26003B0F0BD2046FFF7B7FF054628
:10565000E3E7204600F070F90546DEE70133E3603A
:105660000546DAE702310022C16013462F2103B05C
:10567000BDE8F040FFF7B2BB2DE9F041C2681378F6
:105680004C3B82B005460E2B6DD8DFE803F02C6C46
:10569000316C6C6C6C176C2C6C6C6C6C080001328F
:1056A0000021C26000F02EFDEB68197845290646FE
:1056B00000F0D180002002B0BDE8F0815378742B57
:1056C00069D00021FFF7AAFCEB681B78492B044640
:1056D00050D12846FFF772FF224603460421284690
:1056E000FFF77CFB01E001F0BBF802B0BDE8F08100
:1056F0000132C26001A90122FFF7D6FB074600284C
:10570000D8D028460021FFF729FCEB681C7880469A
:105710000026002C00F08E80442C00F08280A4F142
:105720003002D2B2092A5CD9A4F16102D2B2192A9C
:1057300057D9432C55D0552C53D04C2C51D0532CE9
:1057400000F08480492C7AD0542C00F0B380452C92
:1057500000F0D8804D2C6DD1002E6BD05A1CEA6021
:105760005C781346D5E701F07BF8EB681B78492B92
:10577000044603D0204602B0BDE8F081002899D04D
:105780002B6A6A6A934295DAEA69591C42F8230047
:10579000284629629EE702326549C2600322FFF76C
:1057A00069FB0446284601F05BF8224603460121C6
:1057B0002846FFF713FB2A6BEB6803322A631B783A
:1057C000492B0446D6D100283FF474AF2B6A6A6A8D
:1057D0009342BFF66FAFEA69591C42F82300296271
:1057E00077E7284601F03CF8CEB101213246034666
:1057F0002846FFF7F3FA0646EB68532C1C7888D04E
:10580000452C8CD0B6B12B6A6A6A934212DAEA69E7
:1058100042F823605A1CEB682A621C7879E7064636
:10582000EAE75B7803F0DF03542BDAD1284600F077
:1058300083F8D9E70020386002B0BDE8F081002E7F
:10584000F8D02846FFF7BAFE0421CFE72846012109
:10585000FFF7E4FBC8E75A1CEA605A78732A3DD088
:10586000642A2BD04FF0FF372846FFF705FF044688
:1058700020B10378442B01D0462B29D17B1C25D0A5
:105880006B69AA69934213DA03EB43022969013376
:1058900092006B618B1803D0452088549F605C6038
:1058A000284632460221FFF799FA02B0BDE8F0819E
:1058B0000023F5E72846FFF7D9FC95E70233EB60B4
:1058C0002846FFF7BBFC071ECEDAF3E62346E7E7E0
:1058D0002846FFF7EDFC0028D0D1EBE60233EB6061
:1058E0002846FFF7E5FC00283FF4E4AE28461149BE
:1058F0000E22FFF7BFFA3246034602212846FFF781
:105900006DFAF2E63E60002E3FF4D4AEB8F1000F1F
:1059100004D0019BC8F80430CDF80480EB681A78F5
:10592000452A7FF4C7AE0133EB600198DDE600BF86
:105930000C1B0100FC1A0100F0B5C2681378722B31
:1059400083B0044654D0562B52D04B2B50D0A3F1E9
:1059500030014A297DD8DFE811F0A200A200A200A0
:10596000A200A200A200A200A200A200A2007C004D
:105970007C007C007C007C007C007C00A7007C001C
:10598000CF00FF007C00DC00F2007C007C007C008B
:105990007C007C007101A200C101A7017C00B40160
:1059A000CE01EF0107027C007C007C007C00A2009D
:1059B0007C007C007C007C007C007C0018021802CB
:1059C0001802180218021802180218021802180207
:1059D0007C0018021802180218027C007C007C006F
:1059E0001802180289001802180218021802180278
:1059F000204601A90022FFF757FA054648B3204682
:105A0000FFF79AFF286020B302781F3A012A23D9B2
:105A1000019AF2B1236A616A8B421ADAE16941F8AC
:105A2000232001985D1C256203B0F0BD204601F0E3
:105A300055F84121024600232046FFF7CFF9019097
:105A400038B1E3681A7822B15A1CE2601B78452B02
:105A50001AD0002003B0F0BD019A416842602B6863
:105A600001932960019A002AD4D1F2E70132E26061
:105A70002046FFF72DFC2821024600232046FFF791
:105A8000ADF901900028E4D0236A626A9342E0DA1B
:105A9000E269591C42F8230001982162DAE72046A6
:105AA000FFF7EAFD0190EDE7511CE16053785F2BB1
:105AB00000F07982303B092B00F27E820A460132E7
:105AC000E2601378303B092BF9D9521A2046FFF7D0
:105AD000D1F90546002830D0E1680B785F2B2CD136
