:1000000000200020F9000000991400006514000091
:1000100065140000651400006514000065140000FC
:1000200065140000651400006514000099140000B8
:100030009914000065140000991400005514000084
:1000400099140000991400009914000099140000FC
:1000500099140000991400009914000099140000EC
:1000600099140000991400009914000099140000DC
:1000700099140000991400009914000099140000CC
:10008000A918000099140000711C000099140000C8
:10009000FD1F00009914000099140000991400003D
:1000A000991400009914000099140000991400009C
:1000B000991400009914000099140000991400008C
:1000C000991400009914000099140000C107000061
:1000D000991400009914000099140000991400006C
:1000E000991400009914000099140000991400005C
:1000F0009914000099140000564B4CF2205210B590
:100100001A804DF628121A8000BF00BF01F0C8F90E
:10011000514B524A1A60524A5A60A3F53043283B69
:100120001A6812F4807204D14E490A604FF4A85242
:100130001A604D4B1A78110703D51A7842F008025D
:100140001A704A4B2A221A700023494A49499818C2
:10015000884204D24849595899500433F5E7474A30
:10016000474B9A424FF0000302D242F8043BF7E7B4
:100170004449454A595899500433F82BF8D1434B18
:10018000802103F8011B42498B42F9D1414B1A608F
:10019000414B0A221A70A3F6FF7324221A70A02280
:1001A00003F8012C3D4B1A789207FBD51A78D40638
:1001B000FCD41A7802F00C02082AFAD1384B032238
:1001C0001A7040225A70354B1A789006FBD51A786F
:1001D0005106FCD5334B344A1A6002225A60334B25
:1001E00020221A702D4B1B7803F00C030C2BF9D135
:1001F0002F4B304A1A60304B4BF67F321A60002288
:100200005A60072243F8042C2C4AC3F80C2D62B61E
:1002100000F0C6F9134B1B68DA0705D5284800F033
:1002200041F9284B284A1A60284B1B785B0609D5F0
:10023000244C254A2368934204D1214800F032F926
:100240000023236001F0A4FF01F030F900F021F950
:10025000FEE700BF0E20054038800440823F0400C6
:100260000100002B14D0034002D0074000E00740FB
:1002700060E5FF1F30EAFF1FE025000030EAFF1FA6
:100280000CEDFF1F0000000000E1FF1F00E400E094
:100290002EE400E008ED00E0005006400640064075
:1002A0000440064044800440000003110040064022
:1002B00004800440C010050014E000E0000020208D
:1002C000901D46561CE00340A5C3945A00F0074019
:1002D000FFFFFFFFFFFFFFFFFFFFFFFFFFFFFFFF2E
:1002E000FFFFFFFFFFFFFFFFFFFFFFFFFFFFFFFF1E
:1002F000FFFFFFFFFFFFFFFFFFFFFFFFFFFFFFFF0E
:10030000FFFFFFFFFFFFFFFFFFFFFFFFFFFFFFFFFD
:10031000FFFFFFFFFFFFFFFFFFFFFFFFFFFFFFFFED
:10032000FFFFFFFFFFFFFFFFFFFFFFFFFFFFFFFFDD
:10033000FFFFFFFFFFFFFFFFFFFFFFFFFFFFFFFFCD
:10034000FFFFFFFFFFFFFFFFFFFFFFFFFFFFFFFFBD
:10035000FFFFFFFFFFFFFFFFFFFFFFFFFFFFFFFFAD
:10036000FFFFFFFFFFFFFFFFFFFFFFFFFFFFFFFF9D
:10037000FFFFFFFFFFFFFFFFFFFFFFFFFFFFFFFF8D
:10038000FFFFFFFFFFFFFFFFFFFFFFFFFFFFFFFF7D
:10039000FFFFFFFFFFFFFFFFFFFFFFFFFFFFFFFF6D
:1003A000FFFFFFFFFFFFFFFFFFFFFFFFFFFFFFFF5D
:1003B000FFFFFFFFFFFFFFFFFFFFFFFFFFFFFFFF4D
:1003C000FFFFFFFFFFFFFFFFFFFFFFFFFFFFFFFF3D
:1003D000FFFFFFFFFFFFFFFFFFFFFFFFFFFFFFFF2D
:1003E000FFFFFFFFFFFFFFFFFFFFFFFFFFFFFFFF1D
:1003F000FFFFFFFFFFFFFFFFFFFFFFFFFFFFFFFF0D
:10040000FFFFFFFFFFFFFFFFFFFFFFFFFEFFFFFFFD
:1004100010B5054C237833B9044B13B10448AFF33E
:1004200000800123237010BD30EAFF1F0000000090
:10043000E025000008B5064B1BB106480649AFF39E
:1004400000800648036813B1054B03B1984708BD07
:1004500000000000E025000034EAFF1F30EAFF1F23
:10046000000000000D20012100F04CB808B501216A
:100470000D2000F027F84FF47A7000F07DF80D2081
:10048000002100F01FF84FF47A70BDE8084000F03A
:1004900073B808B5FFF7E6FFFFF7E8FF00F01AFEB4
:1004A000FAE7FFFF044B054900221A600A60044A7C
:1004B000106010221A60704714D0034004D003402B
:1004C00000D00340212810B518D80D4A52F830301A
:1004D00093F880423CB1012211B183F8802010BD15
:1004E00083F8002110BD02EBC00043681A6811B107
:1004F00042F0030201E022F002021A6010BD00BFC8
:1005000038230000212816D80B4A02EBC00301292A
:100510005B6852F8302004D182F880124FF4A27246
:1005200008E0002082F8800211B94FF4807201E0E7
:1005300040F203121A6070473823000072B60B4B6A
:100540000B491A680B4B1B68096862B6490102D552
:10055000322A88BF0133C2F53B4230217F32B2FBE1
:10056000F1F24FF47A7000FB0320704718E000E0CE
:1005700004ED00E04CEAFF1F38B50446FFF7DEFF4C
:10058000054664B1FFF7DAFF401BB0F57A7F03D36D
:10059000013C04D005F57A7500F09CFDF2E738BD0A
:1005A0001B4B4FF4807210B51A604FF400721A6042
:1005B0004FF480621A604FF400621A604FF4805268
:1005C0001A60144B144A154C00204BF6FF7118604A
:1005D00059602823136093601361936113629362DF
:1005E000136393630922226004F58054043420606D
:1005F0000B4801600B490B608B600B4B1A6000F0DD
:10060000DFFE0420FFF7B8FFBDE8104000F0CEBBCE
:1006100004E100E0048003400C80034000800340BC
:10062000089003400C90034000900340F0B50C4B41
:100630000C4C1A7842F0020504EBC50682F0010268
:10064000706009481A700678002E0CBF8827C827EA
:1006500086F0010647EA0141067044F83510F0BD06
:10066000B8EAFF1F00E0FF1F30EBFF1F431E032B04
:1006700010B510D872B6094A52F8230048B1416843
:1006800042F82310064A018832F81340611A22F812
:10069000131062B610BD002010BD00BFA8EAFF1FF6
:1006A000FCECFF1F013803280AD872B6054B53F83B
:1006B0002030002013B101305B68FBE762B6704761
:1006C00000207047FCEAFF1F10B572B60123174ADD
:1006D0001A4412F8012C12071CD59900144A52F83A
:1006E00031402CB902EB431308305860114B09E03C
:1006F00041F0010152F8314064B902EBC103083006
:1007000058600D4B42F831300C4B1A78013A1A7090
:1007100062B610BD0133052BD9D162B6074B00225A
:100720001A70BDE8104000F09DBB00BF38250000E6
:1007300000E0FF1F88004000C800400026EBFF1FBC
:10074000431E032B30B532D8194A400140F0100047
:10075000104472B6174CE25C032A09D8DFE802F0B5
:10076000160218050830022213E00830042210E0B7
:100770001148124A50F8234014B940F8231002E0FF
:1007800052F82300416042F823100FE0032200E0FA
:100790000522E25410F0080F01F108030A884360B3
:1007A0000CBF8823C82343EA0243036062B630BD0E
:1007B00000E0FF1F64EAFF1FFCEAFF1F0CEBFF1FB6
:1007C0002DE9F84FAB4F3C78E4B214F0040F3D46EE
:1007D00019D0A94B1B78A3B1A84A117801F0FF03E7
:1007E00021B1013BDBB2137003B900BEA44A1178FA
:1007F00001F0FF0329B1013BDBB213700BB900F02C
:1008000045FC04233B7004F0080303F0FF02002BB7
:1008100000F063829B4B9C4C1A78D2B215094FEAC8
:10082000920840F0E08104EBC803596854F838306E
:10083000C3F38303013B0C2B00F2D281DFE813F0FA
:1008400091019101D001D001D001D001D001D0019E
:10085000AC01D001D001D0010D008C4D0A684B686D
:100860008B486B6001218B4B44F838302A60DFF8ED
:100870005082017092B240F2816000238242C8F837
:1008800000302361A36117D8B2F5D06F80F01E81CC
:10089000B2F5817F00F0CF8006D8802A00F0BA80C0
:1008A000822A00F0BB802DE140F202339A4200F030
:1008B000D180B2F5A06F1CE042F22100824200F02C
:1008C0004D810ED8B2F5086F00F09E80B2F5106F22
:1008D00040F01881684B6C4EAA781A7006F18009B6
:1008E0000AE042F221218A4200F0088142F22133DB
:1008F0009A4200F00B8105E1336A1B0603D5706A4A
:10090000083800F0AFFA08364E45F5D10026B1465A
:10091000DFF8B0A156F80A0028B1D0F804B000F012
:10092000A1FA5846F8E74AF806005B4BDFF898A1B1
:10093000F05056F80A0028B1D0F804B000F092FA4E
:100940005846F8E7554B4AF80600F050544B23F848
:100950001900544B19F80320023A032A08D8DFE89B
:1009600002F002040204002200E0012203F8092040
:1009700009F10109B9F1040F06F10406C8D14A4B87
:1009800000221A7001269A46484A494B32443344A1
:1009900012F8012C9B0012F0080F1A704FEA86091A
:1009A00025D000F041FA38B104EB46130830586006
:1009B000404B44F8393006E09AF8003044F83900EA
:1009C00001338AF8003000F02FFA49F0010338B102
:1009D00004EBC302083050602E4A44F8332006E08E
:1009E00044F833009AF8003001338AF8003049F0B7
:1009F0000202013649F003090023052E44F8323083
:100A000044F83930C0D182E01B4B2B4C1B7823704B
:100A10000B467FE0284C237063707AE0AA88042A92
:100A200070D8254C920023706370244B9B5C9E070A
:100A30006FD521706DE0AA8802F07F03042B61DC82
:100A40006B88002B5ED191001C4A0A44117821F07A
:100A5000020155E0AA8802F07F03042B52DC6B8868
:100A6000002B4FD19100154A0A44117841F0020140
:100A700046E000BF802007402FEBFF1FB9EAFF1FB1
:100A800031EBFF1F9020074000E0FF1F1CEBFF1F12
:100A900030EBFF1FC800400054EAFF1F0CEBFF1FA4
:100AA000FCECFF1F64EAFF1F26EBFF1F3825000048
:100AB00030C801108800400027EBFF1FC02007400E
:100AC00050EAFF1FA8EAFF1FFCEAFF1F6A88A988F7
:100AD0009D4B53F8084CA3F10C009CB133F80C6CFF
:100AE000964209D133F80A6C8E4205D1120A032AC4
:100AF0000CBF237803890DE00C33EAE7A978934A09
:100B0000117004E0924B0F221A7027E000231C465C
:100B100000E00223EE88B34238BF1E46402E34BFA9
:100B20003546402520462946FFF780FD761B2C449C
:100B300003D1402D12D1354603E0402E34BF354657
:100B4000402520462946FFF771FD761B2C4401D134
:100B5000402D03D17F4AC8F80040168001227E4B09
:100B60003DE07E4B1A8842F221039A4210D10023C5
:100B70007B4AC85C98540133072BF9D11368862B44
:100B800002D1784B0F221A7000200146FFF74EFD6C
:100B9000754B44F8383023E0744E3568B5B1DFF852
:100BA000B481B8F80090B9F1400F34BF4C464024EE
:100BB00028462146FFF73AFDC4EB09039BB2A8F88B
:100BC00000300BB9402C00D12B193360634B1A88CD
:100BD000B2F5A06F04D100225A709A78644B1A7053
:100BE00001225D4B6CE004EBC806013D736802F026
:100BF0000802A3F10800EDB202F0FF01002A36D08E
:100C000000F030F95B485C4B50F82520EAB15168A0
:100C100040F8251002F108017160595D03290BD8D5
:100C2000DFE801F002040608032104E0022102E0EB
:100C3000052100E00421595516F0080F12880CBF59
:100C40008823C82343EA024342E05A5D032A07D8B7
:100C5000DFE802F040400204002206E0012204E046
:100C600016F0080F0CBF022203225A5532E054F846
:100C70003820120C23F8082C22B3DFF82CE123F8DB
:100C8000061C43F8041C5EF825303C4913B94EF8A5
:100C9000250002E051F825305860394B41F8250015
:100CA00033F815100A4423F8152000F0BDF810B1F0
:100CB0000830706006E0334B44F838001A7801328F
:100CC0001A7007E0284B304A16F0080F08BF134689
:100CD00044F8383008233B7074E5E0071FD51E49FF
:100CE00029482A4C02230B70294B1A70294B186093
:100CF00098602948D8601A619A615C60144B0D2095
:100D000018702648FF2303702B700274244A137056
:100D1000244B9F221A7001230B70BDE8F88F210627
:100D200004D50B4B0D221A7080232B70A20705D51A
:100D30001A4B1A78D2B21A7002232B70E30644BF02
:100D400010232B70BDE8F88F4825000040EBFF1FF3
:100D5000C020074024EBFF1F942007401CEBFF1F1F
:100D600004EDFF1FB9EAFF1FC800400050EAFF1F53
:100D700098200740FCEAFF1F64EAFF1F54EAFF1FA8
:100D8000FCECFF1F26EBFF1F8800400068EAFF1FF6
:100D9000B8EAFF1F00E0FF1FBCEAFF1F88200740E2
:100DA0008C20074084200740A8EAFF1F08B501F007
:100DB0007BF90022184B0021D15098180832882A5C
:100DC0004160F7D1154A106840F48020106002F5A8
:100DD00028326832C3F307201070C3F307401B0E9C
:100DE00010751376FF2302F81C3C02F8143C02F83D
:100DF0008C3C012302F8083C82F8641002F8183C8D
:100E0000074B70221A70A3F21F3308221A60054B99
:100E100010221A7008BD00BF00E0FF1F348004409C
:100E200023E400E00821074072B60C4A1168B1FAC9
:100E300081F30B2B02D962B6002070474FF00040BF
:100E4000D84021EA0001116062B6054948225343A7
:100E5000C8180022CA504260704700BF60E5FF1FFB
:100E600000E2FF1F0C4B4822C31AB3FBF2F30B2B1B
:100E700011D80A4A127822B1094A12780AB1FFF74A
:100E800023BC72B6074A4FF0004121FA03F3116800
:100E90001943116062B6704700E2FF1F26EBFF1F87
:100EA0002FEBFF1F60E5FF1F10B5104C23686BB1DF
:100EB00020684288531C0244147A0288934212D359
:100EC000FFF7D0FF094B00221A600DE0084B1B789A
:100ED00013B94FF0FF3010BD0320FFF7C7FB2060B0
:100EE0000028E5D1F5E74380204610BD3CEBFF1F0D
:100EF0002FEBFF1F10B50B4C236813B123686BB9A0
:100F000002E0094B1B7813B94FF0FF3010BD0320EE
:100F1000FFF7ACFB20600028F0D1F5E75A881344B6
:100F2000187A10BD3CEBFF1F2FEBFF1F044B988876
:100F3000044B1B681BB11A885B88D31A184470478E
:100F4000FCECFF1F3CEBFF1F2DE9F8432D4E012366
:100F500007460C463370002C4FD02B4D2B68A9460A
:100F60002BBB47F20958294B1B7803F0FF020BB942
:100F7000327015E00420FFF795FB072808D80123FD
:100F80003370FFF751FFC9F8000080B91D4B18708E
:100F9000B8F101081E4B01D01A782AB101221A704B
:100FA0004FF0FF30BDE8F88300F094F8DBE72968E4
:100FB000174A488800231370C0F14002944238BF9A
:100FC000224600F1080C10448C444880A41A934235
:100FD00004D0F85C0CF803000133F8E71F444B8899
:100FE0003F2B06D940230B800420FFF7A9FB0023E9
:100FF0002B60084B05221A70ADE734702046BDE81F
:10100000F88300BF32EBFF1F34EBFF1F2FEBFF1FF6
:1010100038EBFF1F31EBFF1F07B502AB012103F8CF
:10102000010D1846FFF790FF03B05DF804FBFFFFCA
:101030002DE9F041114B1B78F3B1114E114B34687F
:10104000114D01271F7098464CB1002763882F70FF
:10105000042023802146FFF773FB376009E0FFF788
:10106000E3FE014620B104202C70FFF769FB00E08D
:101070002F70002388F80030BDE8F0812FEBFF1FB0
:1010800034EBFF1F32EBFF1F31EBFF1F38B50E4B68
:101090001B7803F0FF05ABB90C4C216831B14B88CC
:1010A0000B800420FFF74CFB256038BDFFF7BCFE2A
:1010B000014620B10420BDE83840FFF741BB044B96
:1010C00001221A7038BD00BF32EBFF1F34EBFF1F47
:1010D00031EBFF1F10B50E4C2378BBB901232370F1
:1010E000FFF724FF08B101F026F800F07DFB08B1FE
:1010F00000F072F800F070FD08B100F0DFF800F0C9
:1011000031FF08B100F04CF90023237010BD00BF7F
:1011100041EBFF1F08B50368C9B21B68984708BDBB
:1011200008B50368C9B21B68984708BD08B50368CD
:10113000C9B21B68984708BD08B50368C9B21B68E7
:10114000984708BD4B0803F1B76000F55840B0FB65
:10115000F1F000F0CDB910B54B0803F1B76000F520
:1011600058401446B0FBF1F000F0C2F92046BDE84B
:10117000104000F003BA00F02BBA084600F054BA51
:1011800000F032BB00F05ABB00F03EBB00F010BBD9
:1011900000F06CBB00F016BB08B5084600F060FA22
:1011A000012008BD08B5084600F05AFA012008BD24
:1011B00010B508461446114600F09CFA204610BDB2
:1011C00038B508460D4601F00BF80446214628467E
:1011D00000F090FA204638BD7047FFFF044B002214
:1011E0001A714FF47A711A73024A99601A60704743
:1011F00044EBFF1F5024000008B50368C9B21B6808
:10120000984708BD08B50368C9B21B68984708BD70
:1012100008B50368C9B21B68984708BD08B50368DC
:10122000C9B21B68984708BD4B0803F1B76000F5C9
:101230005840B0FBF1F000F0ABBB10B54B0803F128
:10124000B76000F558401446B0FBF1F000F0A0FB89
:101250002046BDE8104000F0DBBB00F003BC0846B0
:1012600000F02CBC00F0B8BC00F0E0BC00F0C4BC46
:1012700000F096BC00F0F2BC00F09CBC08B508463B
:1012800000F038FC012008BD08B5084600F032FC2B
:10129000012008BD10B508461446114600F074FC44
:1012A000204610BD38B508460D4600F099FF0446AB
:1012B0002146284600F068FC204638BD7047FFFFF5
:1012C000044B00221A714FF47A711A73024A996022
:1012D0001A60704754EBFF1FA024000008B5036894
:1012E000C9B21B68984708BD08B50368C9B21B6836
:1012F000984708BD08B50368C9B21B68984708BD80
:1013000008B50368C9B21B68984708BD4B0803F1CC
:10131000B76000F55840B0FBF1F000F0FFBC10B52D
:101320004B0803F1B76000F558401446B0FBF1F0EC
:1013300000F0F4FC2046BDE8104000F02FBD00F0A6
:1013400057BD084600F080BD00F00CBE00F034BE72
:1013500000F018BE00F0EABD00F046BE00F0F0BD9F
:1013600008B5084600F08CFD012008BD08B5084608
:1013700000F086FD012008BD10B508461446114650
:1013800000F0C8FD204610BD38B508460D4600F0F7
:1013900027FF04462146284600F0BCFD204638BD04
:1013A0007047FFFF044B00221A714FF47A711A73D1
:1013B000024A99601A60704764EBFF1FF024000036
:1013C0001B4B60221A70E1225A701A4B1A4A197884
:1013D0001A4B082901D1012102E00A2903D1392140
:1013E0001160132205E00C290CBF35213D2111604D
:1013F00012221A60124B1A78124B02B101221A60A3
:10140000114B1A78114B012A01D880220BE0042AD3
:1014100001D8842207E0082A01D8852203E0102A97
:1014200094BF862287221A60094B01221A707047E6
:101430000040074064E5FF1F08B003400CB00340C4
:1014400075EBFF1F20B0034065E5FF1F24B003408C
:1014500074EBFF1F024B1A6801321A60704700BF1D
:101460004CEAFF1F08B50B4C2368580301D5FFF762
:10147000A7F92368590501D500F016FA23681A0563
:1014800001D500F0F5FB2368DB04ECD500F0B6FDD8
:10149000E9E700BF3480044008B5FFF7E3FFFFFF32
:1014A000014B10221A807047002005407047FFFF53
:1014B000EFF31383ABB9EFF31083ABB9EFF305830D
:1014C00023B10F2B05D9094A985C03E04FF48070D3
:1014D00000E00020EFF311833BB1834238BF184690
:1014E00070474FF0FF30704700207047F0E300E096
:1014F000194B1A6842F480621A60184A002313706C
:10150000174A1370174A1370174A1370174A13704B
:10151000174B40F213321A604FF451725A60154B58
:10152000C0F344321A70C0F347125A7000F01F0023
:101530000422022198729A70D9745A7588221A74FA
:101540003C22DA700C4B40221A70A3F544734FF41E
:1015500080321A60704700BF34800440F8EBFF1FF0
:1015600077EBFF1F00ECFF1FF9EBFF1F76EBFF1F70
:1015700040A0044000A0064010E400E0134A937825
:1015800000F0030103F0EC030B43410748BF43F0B5
:101590001003937000F00F03042B0C4903D18B79D7
:1015A00043F040038B715379C20603F0EF03074AFF
:1015B00048BF43F0100353719379810603F0EF03A2
:1015C00048BF43F010039371704700BF00A006406E
:1015D00008B50E4B1B685B0500D408BD0C4B1A7890
:1015E00002F0FF0312B1FFF775FDF7E7094A4FF468
:1015F00080311160084A0949D37040F203120A6031
:101600004A60074A1370074A137008BD34800440CB
:1016100076EBFF1F80E100E000A0064040A0044000
:10162000F8EBFF1F77EBFF1F38B50446094B1B781B
:1016300003F0FF05002BF9D120460121FEF762FFE0
:1016400020462946FEF73EFF034B53F83420034B58
:101650001A6038BD76EBFF1F38230000FCEBFF1F3C
:10166000F8B51D4B1B685A05064633D51B4B1B6846
:101670000BB101221A701A4B1C780134402C1F4602
:1016800028BF0024174D2B78A34218D1FFF710FF75
:1016900040280FDC144A13791B06F3D52B78134925
:1016A0000133402B28BF0023C95CDBB2C9B2D17122
:1016B0002B70E7E7FF28E5DDFFF70CFDE2E70B4BBA
:1016C000F6B21E550A4B01221A70074BE4B2BC2237
:1016D0003C70DA70F8BD00BF34800440FCEBFF1FA3
:1016E00000ECFF1FF9EBFF1F00A0064078EBFF1F87
:1016F00076EBFF1F274B1B685A052DE9F04707467D
:101700008A4644D5244B1B680BB101221A703D4612
:1017100007EB0A039D4237D2DFF890801F4E98F8FE
:10172000004096F800900134402C28BF00245FFA56
:1017300089F9A1451DD11A4BBC22DA70FFF7B8FE1A
:1017400040280FDC164A13791B060FD5337815494C
:101750000133402B28BF0023C95CDBB2C9B2D17171
:10176000337003E0FF2801DDFFF7B4FC33784B450D
:10177000E4D00C4B15F8012B1A550B4B0122E4B2A7
:101780001A7088F80040C3E7054BBC22DA70BDE848
:10179000F08700BF34800440FCEBFF1FF9EBFF1F14
:1017A00000A0064078EBFF1F76EBFF1F00ECFF1F49
:1017B00008B5034B1B7813B1FFF78CFCF9E708BDA4
:1017C00076EBFF1F064A074B1B781078DBB2C0B2DE
:1017D00083422CBF3F3000F1FF30C01A704700BF7A
:1017E000F9EBFF1F00ECFF1F054B1878054B1B782A
:1017F000C0B2DBB2984238BF4030C01A704700BF59
:10180000F8EBFF1F77EBFF1F094B0A4A1978137893
:10181000DBB2994208D00133402B28BF0023064990
:10182000C85CDBB2137070474FF0FF30704700BFE9
:10183000F8EBFF1F77EBFF1FB8EBFF1F084B1A7881
:10184000084B1B78DBB29A4207D00133402B28BFEC
:101850000023054AD05CC0B270474FF0FF3070479C
:10186000F8EBFF1F77EBFF1FB8EBFF1F0A4B1B685E
:101870005B050FD5094BDA7802F0CB02DA70402213
:101880005A74DA7842F03402DA70054B1A78054B54
:10189000D2B21A70704700BF3480044000A00640E6
:1018A00077EBFF1FF8EBFF1F30B5304B1A7912F0C2
:1018B000300F23D072B69A7D02F0FF0122B9DA7997
:1018C00040225A7462B619E062B6294B29481A7848
:1018D0000478D2B2E4B21846244BDD79531C402B75
:1018E00028BF0023A342EDB202D0234AD5541A46A2
:1018F0004B1E13F0FF01EFD1D2B202701B4BD9780F
:10190000C9B20C0620D51B7918061DD51B4B1C4AE5
:101910001D781378EDB2DBB21046AB420CD0134AFF
:101920000133402B1479174C28BF0023E45CE4B248
:10193000D471127D072AF0D9DBB203700B4B1A79F0
:10194000120644BF7C22DA704B060ED5074B1A797B
:1019500012F0400F194608D00B4B00221A700B4BA7
:101960001B6803B11A703C23CB7030BD00A0064049
:10197000F8EBFF1F77EBFF1FB8EBFF1F00ECFF1F1B
:10198000F9EBFF1F78EBFF1F76EBFF1FFCEBFF1F50
:10199000164B1A6842F400621A60154A002313704D
:1019A000144A1370144A1370144A1370144A1370B3
:1019B000144A40F2133111604FF451715160124AD0
:1019C000C0F344311170C0F3471100F01F00517093
:1019D0009072937013742C23D3700C4B40221A70A6
:1019E000A3F212334FF480221A607047348004400F
:1019F0006BECFF1F02ECFF1F74ECFF1F6CECFF1F72
:101A000001ECFF1F0CB0044000B0064012E400E0FF
:101A1000134A937800F0030103F0EC030B434107F2
:101A200048BF43F01003937000F00F03042B0C49E0
:101A300003D18B7943F040038B715379C20603F0D5
:101A4000EF03074A48BF43F01003537193798106AF
:101A500003F0EF0348BF43F010039371704700BFDA
:101A600000B0064008B50E4B1B681B0500D408BD2E
:101A70000C4B1A7802F0FF0312B1FFF72BFBF7E7CC
:101A8000094A4FF480211160084A0949D37040F295
:101A900003120A604A60074A1370074A137008BDB0
:101AA0003480044001ECFF1F80E100E000B00640FC
:101AB0000CB004406BECFF1F02ECFF1F38B504466E
:101AC000094B1B7803F0FF05002BF9D120460121BB
:101AD000FEF718FD20462946FEF7F4FC034B53F8A9
:101AE0003420034B1A6038BD01ECFF1F382300007F
:101AF00070ECFF1FF8B51D4B1B681A05064633D561
:101B00001B4B1B680BB101221A701A4B1C78013455
:101B1000282C1F4628BF0024174D2B78A34218D12C
:101B2000FFF7C6FC40280FDC144A13791B06F3D5D7
:101B30002B7813490133282B28BF0023C95CDBB263
:101B4000C9B2D1712B70E7E7FF28E5DDFFF7C2FAD4
:101B5000E2E70B4BF6B21E550A4B01221A70074BF7
:101B6000E4B2AC223C70DA70F8BD00BF34800440AF
:101B700070ECFF1F74ECFF1F6CECFF1F00B0064001
:101B800003ECFF1F01ECFF1F38B504464518AC42BB
:101B900004D014F8010BFFF7ADFFF8E738BDFFFFE5
:101BA00008B5034B1B7813B1FFF794FAF9E708BDAA
:101BB00001ECFF1F064A074B1B781078DBB2C0B25E
:101BC00083422CBF273000F1FF30C01A704700BF9E
:101BD0006CECFF1F74ECFF1F054B1878054B1B784E
:101BE000C0B2DBB2984238BF4030C01A704700BF65
:101BF0006BECFF1F02ECFF1F094B0A4A19781378A0
:101C0000DBB2994208D00133402B28BF002306499C
:101C1000C85CDBB2137070474FF0FF30704700BFF5
:101C20006BECFF1F02ECFF1F2BECFF1F084B1A7819
:101C3000084B1B78DBB29A4207D00133402B28BFF8
:101C40000023054AD05CC0B270474FF0FF307047A8
:101C50006BECFF1F02ECFF1F2BECFF1F024B1A78EF
:101C6000024BD2B21A70704702ECFF1F6BECFF1FE1
:101C700010B5214B1A7992060FD5204AD8791378DE
:101C80001F490133402B097828BF00238B42C0B283
:101C900003D01C49C854DBB21370174AD178C9B2BB
:101CA0000C0616D51379180613D5174B17481C7850
:101CB0000378DBB29C4202D16C23D37009E001337C
:101CC000282B28BF0023124CE45CDBB2E4B2D471B1
:101CD00003704B060ED5084B1A7912F0400F1946C7
:101CE00008D00C4B00221A700B4B1B6803B11A7002
:101CF0002C23CB7010BD00BF00B006406BECFF1F63
:101D000002ECFF1F2BECFF1F74ECFF1F6CECFF1F9E
:101D100003ECFF1F01ECFF1F70ECFF1F164B1A684E
:101D200042F480521A60154A00231370144A13704B
:101D3000144A1370144A1370144A1370144A40F270
:101D4000133111604FF451715160124AC0F34431A4
:101D50001170C0F3471100F01F0051709072937022
:101D600013742C23D3700C4B40221A70A3F54573C7
:101D70004FF480121A60704734800440DFECFF1F7C
:101D800076ECFF1FE8ECFF1FE0ECFF1F75ECFF1F78
:101D900008C0044000C0064014E400E0134A9378F1
:101DA00000F0030103F0EC030B43410748BF43F08D
:101DB0001003937000F00F03042B0C4903D18B79AF
:101DC00043F040038B715379C20603F0EF03074AD7
:101DD00048BF43F0100353719379810603F0EF037A
:101DE00048BF43F010039371704700BF00C0064026
:101DF00008B50E4B1B68DB0400D408BD0C4B1A78E9
:101E000002F0FF0312B1FFF765F9F7E7094A4FF453
:101E100080111160084A0949D37040F203120A6028
:101E20004A60074A1370074A137008BD34800440A3
:101E300075ECFF1F80E100E000C0064008C00440D0
:101E4000DFECFF1F76ECFF1F38B50446094B1B780B
:101E500003F0FF05002BF9D120460121FEF752FBCC
:101E600020462946FEF72EFB034B53F83420034B44
:101E70001A6038BD75ECFF1F38230000E4ECFF1F2B
:101E8000F8B51D4B1B68DA04064633D51B4B1B689F
:101E90000BB101221A701A4B1C780134282C1F46F2
:101EA00028BF0024174D2B78A34218D1FFF700FB61
:101EB00040280FDC144A13791B06F3D52B781349FD
:101EC0000133282B28BF0023C95CDBB2C9B2D17112
:101ED0002B70E7E7FF28E5DDFFF7FCF8E2E70B4BA7
:101EE000F6B21E550A4B01221A70074BE4B2AC221F
:101EF0003C70DA70F8BD00BF34800440E4ECFF1F92
:101F0000E8ECFF1FE0ECFF1F00C0064077ECFF1F6E
:101F100075ECFF1F38B504464518AC4204D014F8E0
:101F2000010BFFF7ADFFF8E738BDFFFF08B5034B26
:101F30001B7813B1FFF7CEF8F9E708BD75ECFF1F6A
:101F4000064A074B1B781078DBB2C0B283422CBF25
:101F5000273000F1FF30C01A704700BFE0ECFF1FD0
:101F6000E8ECFF1F054B1878054B1B78C0B2DBB2BD
:101F7000984238BF4030C01A704700BFDFECFF1FE7
:101F800076ECFF1F094B0A4A19781378DBB29942A5
:101F900008D00133402B28BF00230649C85CDBB2C0
:101FA000137070474FF0FF30704700BFDFECFF1F2A
:101FB00076ECFF1F9FECFF1F084B1A78084B1B782D
:101FC000DBB29A4207D00133402B28BF0023054AD9
:101FD000D05CC0B270474FF0FF307047DFECFF1F9E
:101FE00076ECFF1F9FECFF1F024B1A78024BD2B218
:101FF0001A70704776ECFF1FDFECFF1F10B5214B06
:102000001A7992060FD5204AD87913781F490133DF
:10201000402B097828BF00238B42C0B203D01C4953
:10202000C854DBB21370174AD178C9B20C0616D562
:102030001379180613D5174B17481C780378DBB2B1
:102040009C4202D16C23D37009E00133282B28BFB6
:102050000023124CE45CDBB2E4B2D47103704B0693
:102060000ED5084B1A7912F0400F194608D00C4BC8
:1020700000221A700B4B1B6803B11A702C23CB7013
:1020800010BD00BF00C00640DFECFF1F76ECFF1F55
:102090009FECFF1FE8ECFF1FE0ECFF1F77ECFF1F3A
:1020A00075ECFF1FE4ECFF1F1FB572B6154B7022D5
:1020B0001A70154A412111700F2102F8011C80226B
:1020C0001A701A781206FCD5104B186862B6104BBD
:1020D000984298BF0A2301AC98BF584321460A2270
:1020E00000F038F80023E15C0A4A29B102EB430012
:1020F00001330A2B4180F6D101335B00137004B029
:1021000010BD00BF0000024007000240080002406E
:102110007F969800EEE5FF1FFEF708BFFEF7C4BEEE
:10212000FEF7E8BEFEF784BF0846FEF775BF084617
:102130001146FEF709BF7047044B00221A714FF495
:102140007A711A73024A99601A607047ECECFF1FAB
:102150009825000010B50023B0FBF2F402FB140038
:10216000092894BF30303730C0B2C85420460CB173
:102170000133F1E7CA18547022469A4206DA885CA5
:10218000CC5C8C54C8540132013BF6E7084610BDC4
:1021900070B50F4E0F4D761BB61007D0043D0024CE
:1021A000013455F8043F9847A642F9D10A4E0B4D29
:1021B000761B00F001FAB61008D0043D002401346B
:1021C00055F8043F9847A642F9D170BD70BD00BFD5
:1021D000C4250000C4250000DC250000C425000043
:1021E00020F0030110F00300C0F1000051F8043B9F
:1021F00000F1040C4FEACC0C6FF000021CBF22FA75
:102200000CF213434FF0010C4CEA0C2C4CEA0C4C32
:10221000A3EB0C0222EA030212EACC1204BF51F82B
:10222000043B0430F4D013F0FF0F1FBF013013F450
:102230007F4F013013F47F0F18BF0130704700BF8C
:10224000024B13B1024800F005B8704700000000CF
:1022500061220000014600200246034600F018B843
:1022600038B5094D094C641BA41018BF05EB840553
:1022700005D0013C55F8043D9847002CF9D1BDE844
:10228000384000F0ABB900BF0000000000000000C3
:10229000F0B5274C2668D6F8484185B00746002C93
:1022A00041D065681F2D1EDD224818B94FF0FF3060
:1022B00005B0F0BD4FF4C870039102920193AFF3E3
:1022C00000800399029A019B04460028EED0D6F8BC
:1022D00048512560002060600546C6F84841C4F8B2
:1022E0008801C4F88C013FB9AB1C00200135656042
:1022F00044F8231005B0F0BD04EB85004FF0010C4D
:10230000C0F88820D4F888610CFA05F21643022F31
:10231000C4F88861C0F80831E6D1D4F88C311A438A
:10232000C4F88C21E0E706F5A674C6F84841B8E782
:10233000B4250000000000004008FE4340A0044017
:102340004408FE4344A004400018FE4300C004407B
:102350003000FE43309004403400FE43349004408B
:102360001C18FE431CC004401018FE4310C004405B
:102370000818FE4308C004400C18FE430CC004407B
:102380000C10FE430CB004401010FE4310B004408B
:102390001810FE4318B004401C10FE431CB004404B
:1023A0001410FE4314B004400418FE4304C004405B
:1023B0000010FE4300B004400008FE4300A00440AB
:1023C0000408FE4304A004400C08FE430CA0044093
:1023D0000808FE4308A004401418FE4314C004403B
:1023E0001818FE4318C004400410FE4304B0044013
:1023F0000810FE4308B004401400FE43149004404B
:102400004C08FE434CA004400420FE4304D004408A
:102410002410FE4324B004402010FE4320B00440AA
:102420002810FE4328B004402C10FE432CB004407A
:102430000020FE4300D004404808FE4348A004406A
:102440001000FE4310900440000000000000000057
:1024500099110000B11100008111000089110000E4
:10246000851100008D11000045110000571100007A
:10247000771100007B110000911100009511000000
:1024800015110000211100002D110000391100006C
:10249000C1110000A51100000000000000000000B4
:1024A0007D12000095120000651200006D12000000
:1024B0006912000071120000291200003B12000096
:1024C0005B1200005F12000075120000791200001C
:1024D000F911000005120000111200001D12000089
:1024E000A51200008912000000000000000000009A
:1024F000611300007913000049130000511300001C
:102500004D130000551300000D1300001F130000B1
:102510003F13000043130000591300005D13000037
:10252000DD120000E9120000F512000001130000A6
:10253000891300006D13000000151915000100003B
:1025400066E5FF1F120000000002000090E5FF1F7B
:102550004300000000030000EAE5FF1F0000000048
:102560000103090478E5FF1F0000000002030904CD
:10257000D4E5FF1F0000000003030904EEE5FF1F80
:10258000000000000000000000000000000000004B
:102590000000000000000000292100002F210000A1
:1025A000192100001D21000021210000252100002B
:1025B0004300000008E6FF1FF8B500BFF8BC08BCE8
:1025C0009E4670474122000035040000DD110000E6
:0C25D000C1120000A5130000392100001A
:0425DC00F8B500BF8F
:1025E000FFFFFFFF0A041201000202000040C016B4
:1025F0008304000101020301180354006500650013
:102600006E00730079006400750069006E006F0051
:1026100009024300020100C0320904000001020265
:102620000100052400100105240101010424020613
:10263000052406000107058203100040090401007B
:10264000020A00000007050302400000070584029B
:1026500040000000160355005300420020005300C4
:1026600065007200690061006C00040309040C033A
:10267000000000000000000000000000000000005A
:10268000000000000000000000000000F4E8FF1F50
:102690005CE9FF1FC4E9FF1F00000000000000000C
:1026A000000000000000000000000000000000002A
:1026B000000000000000000000000000B025000045
:1026C000000000000000000000000000000000000A
:1026D00000000000000000000000000000000000FA
:1026E00000000000000000000000000000000000EA
:1026F00000000000000000000000000000000000DA
:1027000000000000000000000000000000000000C9
:1027100000000000000000000000000000000000B9
:1027200000000000000000000000000000000000A9
:1027300001000000000000000E33CDAB34126DE646
:10274000ECDE05000B0000000000000000000000AF
:102750000000000000000000000000000000000079
:102760000000000000000000000000000000000069
:102770000000000000000000000000000000000059
:102780000000000000000000000000000000000049
:00000001FF
